:0400000046EF00F0D7
:10000800FACF1AF0FBCF1BF0E9CF1CF07FED11F00F
:10001800D8CF0AF0E8CF0BF0E0CF0CF0E1CF0DF02D
:10002800E2CF0EF0D9CF0FF0DACF10F0F3CF11F006
:10003800F4CF12F0A0A201D001D007D0A1A201D024
:1000480001D003D092EC12F00AD09DAC01D001D0BF
:1000580006D09EAC01D001D002D0CEEC13F012C075
:10006800F4FF11C0F3FF10C0DAFF0FC0D9FF0EC0B4
:10007800E2FF0DC0E1FF0CC0E0FF0BC0E8FF0AC0C3
:10008800D8FF10003AEF11F0F4EC10F0BDEC11F0CD
:10009800010EBA6F000EBCEC13F0396E010EBCEC09
:1000A80013F0386E2E6A2F6A0E0EBCEC13F0AC6F8C
:1000B800AB6BAB512E12AC512F120F0EBCEC13F0E0
:1000C8002E122C6A2D6A100EBCEC13F0AC6FAB6BC1
:1000D800AB512C12AC512D12110EBCEC13F02C129A
:1000E8002EC068F02FC069F051EC13F0D2EC09F083
:1000F80051EC13F068C06CF069C06DF06AC06EF026
:1001080035EC0EF06CC080F06DC081F06EC082F0EE
:10011800B3EC0BF07DC0B2F07EC0B3F07FC0B4F09A
:10012800346A356A020EBCEC13F0AC6FAB6BAB51A2
:100138003412AC513512030EBCEC13F03412366A8B
:10014800376A040EBCEC13F0AC6FAB6BAB513612D4
:10015800AC513712050EBCEC13F03612286A296A26
:10016800060EBCEC13F0AC6FAB6BAB512812AC5164
:100178002912070EBCEC13F028122A6A2B6A080E03
:10018800BCEC13F0AC6FAB6BAB512A12AC512B1219
:10019800090EBCEC13F02A12306A316A0A0EBCEC64
:1001A80013F0AC6FAB6BAB513012AC5131120B0E7C
:1001B800BCEC13F03012326A336A0C0EBCEC13F04C
:1001C800AC6FAB6BAB513212AC5133120D0EBCECB1
:1001D80013F03212828C380EC96FCA6FCB6F780E4B
:1001E800CC6F01019E930CC19BF10DC19CF10EC116
:1001F8009DF19E959E81AE9318C1ABF119C1ACF1EA
:100208001AC1ADF1AE95B2931BC1AFF11CC1B0F1EB
:100218001DC1B1F1B2959EB302D04D6B0AD09E516B
:10022800FD0B9E6F01019E31010B000ED8B4010E2B
:100238004D6F4E6B4E514D111EE0000E0FEC0FF03E
:10024800010E0FEC0FF0080E0FEC0FF0090E0FEC7B
:100258000FF0030E0FEC0FF0050E0FEC0FF0070E6A
:100268000FEC0FF0060E0FEC0FF00A0E0FEC0FF06C
:100278000B0E0FEC0FF001019AB302D04F6B0AD0AE
:100288009A51FD0B9A6F01019A31010B000ED8B4F7
:10029800010E4F6F506B50514F1102E0010E3A6E34
:1002A800ADEC10F001018EB302D0516B0AD08E5123
:1002B800FD0B8E6F01018E31010B000ED8B4010EBB
:1002C800516F526B5251511130E022EC07F002ECA1
:1002D80007F0F8EC11F0010E0001BB6F3A500F0A5D
:1002E8001DE03A50110A1AE03A50130A17E03A5042
:1002F800150A14E03A50170A11E03A50190A0EE0AC
:100308003A500A0A0BE03A500C0A08E00ED00A0EDE
:1003180003D0640E01D0010E3C6E07D03C50010A98
:10032800F6E00B0AF6E06E0AF6E0010192B302D09D
:10033800536B0AD09251FD0B926F01019231010B60
:10034800000ED8B4010E536F546B5451531130E062
:1003580022EC07F002EC07F0F8EC11F0010E0001B6
:10036800BB6F3A500F0A1DE03A50110A1AE03A5092
:10037800130A17E03A50150A14E03A50170A11E028
:100388003A50190A0EE03A500A0A0BE03A500C0AA1
:1003980008E00ED0640E03D0010E01D00A0E3C6EA8
:1003A80007D03C50010AF6E00B0AF6E06E0AF6E0C8
:1003B8003A663ED00101B2B302D0556B0AD0B251B1
:1003C800FD0BB26F0101B231010B000ED8B4010E62
:1003D800556F566B5651551113E0B2931BC1AFF1CF
:1003E8001CC1B0F11DC1B1F1B2950001CC51780A20
:1003F80002E1210E04D0CC51210A02E1760ECC6F25
:100408000101AEB302D0576B0AD0AE51FD0BAE6FEF
:100418000101AE31010B000ED8B4010E576F586BB5
:100428005851571102E11AEF06F09AEC13F0FED377
:100438003A0401E0B9D119EC10F00101BEB302D0C1
:10044800596B0AD0BE51FD0BBE6F0101BE31010BC5
:10045800000ED8B4010E596F5A6B5A51591102E067
:100468000001B0890001ADA1E1D3AE510C0A01E051
:10047800DDD3660E806FAE0E816FC10E826FD6EC33
:1004880013F060C068F061C069F051EC13F068C007
:100498007DF069C07EF06AC07FF0B3EC0BF07DC0E0
:1004A8006CF07EC06DF07FC06EF0EE0E6F6F140EB4
:1004B800706F400E716F35EC0EF06CC04AF16DC074
:1004C8004BF16EC04CF14AC195F04BC196F04CC14E
:1004D80097F06DEC0CF095C0C6F096C0C7F097C0C9
:1004E800C8F0B2C079F0B3C07AF0B4C07BF0C60EE1
:1004F80033EC13F0C6C060F0C7C061F0C8C062F04A
:1005080070EC0FF060C0B7F061C0B8F0E80EB75DEE
:10051800030EB85904E3030EB86FE70EB76FB7C000
:1005280067F0B8C068F0C90E696F030E6A6F21ECF6
:1005380012F023D1200E42D1B751345CB85135584E
:1005480005E23650B75D3750B85902E32D0E36D163
:10055800B751345CB851355805E22850B75D295079
:10056800B8590AE3B7512A5CB8512B5807E23650FC
:10057800B75D3750B85902E2780E20D1B751285CE0
:10058800B851295805E23050B75D3150B8590AE3DF
:10059800B751325CB851335807E22A50B75D2B5037
:1005A800B85902E2210E0AD13050B75D3150B8591E
:1005B80001E23CD3B751325CB851335801E236D32B
:1005C80025D2B751345CB8513558D6E23650B75DAC
:1005D8003750B859D1E2B751345CB851355805E2B3
:1005E8003050B75D3150B859DDE3B751325CB8517E
:1005F800335805E23650B75D3750B859D3E3305019
:10060800B75D3150B85901E211D3B751325CB851D6
:10061800335801E3FBD10AD3B751345CB85135588C
:1006280001E3F4D13650B75D3750B85901E3EED144
:10063800B751345CB851355805E23050B75D315088
:10064800B859B0E3B751325CB851335805E2365067
:10065800B75D3750B859A6E33050B75D3150B85937
:1006680001E2E4D2B751325CB851335885E2DED2A8
:10067800B751365CB851375801E37ED7B751365C6D
:10068800B851375805E23050B75D3150B8598AE350
:100698003050B75D3150B859BCD7B751325CB851FA
:1006A800335801E3B3D1B751325CB851335806E23D
:1006B8003050B75D3150B85901E274D73050B75D4A
:1006C8003150B859D3D7B751365CB851375806E3CB
:1006D8002850B75D2950B85901E34ED7B751365C59
:1006E800B851375806E23050B75D3150B85901E279
:1006F80059D72850B75D2950B85901E253D7B75197
:100708002A5CB8512B5801E24DD73050B75D3150B3
:10071800B85901E28BD2B7512A5CB8512B5879D716
:10072800B751325CB851335806E32850B75D2950A9
:10073800B85901E36BD1B751325CB851335806E26E
:100748003450B75D3550B85901E22CD72850B75D01
:100758002950B85901E226D7B7512A5CB8512B580D
:1007680001E220D73450B75D3550B85901E25ED266
:10077800B7512A5CB8512B5879D7385001E1DAD6ED
:10078800010A01E1D9D6030A01E11BD7010A01E1F7
:1007980043D7070A01E16CD7010A01E17ED7030AB2
:1007A80092E0010ABDE042D23A50020A09E1620E23
:1007B8000001C96F720ECA6F690E23D0CC6F36D292
:1007C8003A50030A07E16E0E0001C96F6F0ECA6F37
:1007D800640E17D03A50040A07E14C0E0001C96FA5
:1007E800690ECA6F6E0E0DD03A50050A05E1450E26
:1007F8000001C96F530EC0D03A50060A04E1750EC5
:1008080006D0CB6F97D63A50070A07E1460E00018B
:10081800C96F430ECA6F410EF4D73A50080A39E13E
:100828000101AAB302D05B6B04D0FADAD8B4010E86
:100838005B6F5C6B5C515B1101E0E0DAA6B302D040
:100848005D6B04D0F4DAD8B4010E5D6F5E6B5E5157
:100858005D1101E0DCDAA6B517D021EEA3F0DE5079
:10086800DE10DD1011E0200E0001CC6F39C0B5F0AC
:10087800B66BB5C067F0B6C068F0CB0E696F010EF5
:100888006A6F21EC12F0D2D1200E0001C96FCA6F35
:10089800B8D73A500D0A29E10101AAB302D05F6B1B
:1008A80004D0BEDAD8B4010E5F6F606B60515F117F
:1008B80001E0A4DAA6B302D0616B04D0B8DAD8B4E8
:1008C800010E616F626B6251611101E0A0DAA6B599
:1008D800DBD721EEA3F0DE50DE10DD10D5E0200ED0
:1008E8000001CC6F38C0B5F0C3D73A50090A07E108
:1008F800450E0001C96F6E0ECA6F740E82D73A504A
:100908000A0A33E10101AAB302D0636B04D088DA82
:10091800D8B4010E636F646B6451631101E06EDA41
:10092800A6B302D0656B04D082DAD8B4010E656F25
:10093800666B6651651101E06ADAA6B5A5D721EEA6
:10094800A3F0DE50DE10DD109FE02EC0B5F02FC002
:10095800B6F0B5C067F0B6C068F00001C90E696F9F
:10096800030E6A6F21EC12F061D13A500B0A07E1CD
:10097800640E0001C96F450ECA6F630E42D73A5024
:100988000C0A29E10101AAB302D0676B04D048DA46
:10099800D8B4010E676F686B6851671101E02EDAF1
:1009A800A6B302D0696B04D042DAD8B4010E696FDD
:1009B8006A6B6A51691101E02ADAA6B565D721EE9A
:1009C800A3F0DE50DE10DD1001E15ED72CC0B5F0DB
:1009D8002DC0B6F0BED73A500E0A02E164DA04D050
:1009E8003A50100A03E165DACB6FC6D53A50120ABD
:1009F80002E159DA04D03A50140A03E15ADACB6F0B
:100A0800D1D53A50160A04E14EDA06D0760ED6D67B
:100A18003A50180A03E14DDACB6FF8D73A500F0A6B
:100A280029E10101AAB302D06B6B04D0F9D9D8B47B
:100A3800010E6B6F6C6B6C516B1101E0DFD9A6B3C3
:100A480002D06D6B04D0F3D9D8B4010E6D6F6E6B04
:100A58006E516D1101E0DBD9A6B516D721EEA3F0D2
:100A6800DE50DE10DD1001E10FD734C0B5F035C01F
:100A7800B6F06FD73A50110A29E10101AAB302D0A2
:100A88006F6B04D0CDD9D8B4010E6F6F706B7051F5
:100A98006F1101E0B3D9A6B302D0716B04D0C7D9E6
:100AA800D8B4010E716F726B7251711101E0AFD938
:100AB800A6B5EAD621EEA3F0DE50DE10DD1001E186
:100AC800E3D636C0B5F037C0B6F043D73A50130A6C
:100AD80029E10101AAB302D0736B04D0A1D9D8B41B
:100AE800010E736F746B7451731101E087D9A6B34B
:100AF80002D0756B04D09BD9D8B4010E756F766B94
:100B08007651751101E083D9A6B5BED621EEA3F0C2
:100B1800DE50DE10DD1001E1B7D628C0B5F029C0DF
:100B2800B6F017D73A50150A29E10101AAB302D045
:100B3800776B04D075D9D8B4010E776F786B78517C
:100B4800771101E05BD9A6B302D0796B04D06FD9D5
:100B5800D8B4010E796F7A6B7A51791101E057D9BF
:100B6800A6B592D621EEA3F0DE50DE10DD1001E12D
:100B78008BD62AC0B5F02BC0B6F0EBD63A50170A80
:100B880029E10101AAB302D07B6B04D049D9D8B4BA
:100B9800010E7B6F7C6B7C517B1101E02FD9A6B3D2
:100BA80002D07D6B04D043D9D8B4010E7D6F7E6B23
:100BB8007E517D1101E02BD9A6B566D621EEA3F0B2
:100BC800DE50DE10DD1001E15FD630C0B5F031C077
:100BD800B6F0BFD63A50190A29E10101AAB302D0EA
:100BE8007F6B04D01DD9D8B4010E7F6F806B805104
:100BF8007F1101E003D9A6B302D0816B04D017D9C5
:100C0800D8B4010E816F826B8251811101E0FFD847
:100C1800A6B53AD621EEA3F0DE50DE10DD1001E1D4
:100C280033D632C0B5F033C0B6F093D60001BCABB2
:100C380006D0BC511F0B020A02E1BCBD03D0010162
:100C4800836B02D011D9836F846B845183111BE0AD
:100C58000001BB5102E0BB6B16D001018B6B8C6BA2
:100C68008D6B8E853A5007E0070E3A6004D03A2A19
:100C780010D906D908D03A50070A03E1020E3A6E95
:100C8800F7D763EC07F00001BCAB06D0BC511F0BD3
:100C9800030A02E1BCBD03D00101856B02D0E4D890
:100CA800856F866B865185111BE00001BB5102E000
:100CB800BB6B16D001018F6B906B916B92853A508C
:100CC80007E0070E3A6004D03A2AE3D8D9D808D00A
:100CD8003A50070A03E1020E3A6EF7D7A3EC08F080
:100CE8000001BCAB05D0BC511F0B02E1BCAD03D069
:100CF8000101876B02D0B8D8876F886B885187113C
:100D080032E03A50020A27E03A50030A24E03A5007
:100D1800040A21E03A50050A1EE03A500A0A1BE08C
:100D28003A500C0A18E03A50060A15E03A50070AF9
:100D380012E03A500F0A0FE03A50110A0CE03A500C
:100D4800130A09E03A50150A06E03A50170A03E078
:100D58003A50190A08E18E9300C18BF101C18CF158
:100D680002C18DF18E950001BCAB07D0BC511F0BA1
:100D7800AB6FAB0502E1BCAD03D00101896B02D0BA
:100D880073D8896F8A6B8A51891102E10FEF01F0DC
:100D98003A50020A29E03A50030A26E03A50040A77
:100DA80023E03A50050A20E03A500A0A1DE03A507A
:100DB8000C0A1AE03A50060A17E03A50070A14E0FB
:100DC8003A500F0A11E03A50110A0EE03A50130A4D
:100DD8000BE03A50150A08E03A50170A05E03A5075
:100DE800190A02E00FEF01F0929303C18FF104C1D9
:100DF80090F105C191F192950FEF01F0A69312C100
:100E0800A3F113C1A4F114C1A5F1A6951200AA93E8
:100E180015C1A7F116C1A8F117C1A9F1AA95120029
:100E2800AA51FD0BAA6F0101AA31010B000CA651B2
:100E3800FD0BA66F0101A631010B000C976B986B97
:100E4800996B9A85828C969306C193F107C194F1A8
:100E580008C195F19695A2930FC19FF110C1A0F119
:100E680011C1A1F1A2951200BC51DF0BBC6F0001AA
:100E7800BC39E832010B000ED8B4010E0101120092
:100E8800969306C193F107C194F108C195F196951F
:100E98001200828C9A9309C197F10AC198F10BC18B
:100EA80099F19A951200200E0001C96F4C0ECA6F75
:100EB8006F0C200E0001C96F480ECA6F690C3A50BA
:100EC800080A09E1040E396006D0392A39C060F0F1
:100ED800000E84EC13F03A500A0A38E13C502E24F4
:100EE80000018B6F000E2F2025D9D8B48B5D2EE220
:100EF8003C502E26000E2F222F50606F0E0E84ECD1
:100F080013F02EC060F00F0E84EC13F02EC068F0C2
:100F18002FC069F051EC13F0D2EC09F051EC13F04A
:100F280068C06CF069C06DF06AC06EF035EC0EF008
:100F38006CC080F06DC081F06EC082F0B3EC0BF035
:100F48007DC0B2F07EC0B3F07FC0B4F03A500C0A56
:100F580038E13C502C2400018B6F000E2D20EAD87C
:100F6800D8B48B5D2EE23C502C26000E2D222D503D
:100F7800606F100E84EC13F02CC060F0110E84EC3E
:100F880013F02EC068F02FC069F051EC13F0D2ECCA
:100F980009F051EC13F068C06CF069C06DF06AC0DC
:100FA8006EF035EC0EF06CC080F06DC081F06EC054
:100FB80082F0B3EC0BF07DC0B2F07EC0B3F07FC01E
:100FC800B4F03A500D0A09E1070E386006D0382A05
:100FD80038C060F0010E84EC13F03A500F0A18E1A3
:100FE8003C50342400018B6F000E3520A3D8D8B4B0
:100FF8008B5D0EE23C503426000E35223550606F72
:10100800020E84EC13F034C060F0030E84EC13F08D
:101018003A50110A18E13C50362400018B6F000E3B
:10102800372088D8D8B48B5D0EE23C503626000EA7
:1010380037223750606F040E84EC13F036C060F02E
:10104800050E84EC13F03A50130A18E13C5028249A
:1010580000018B6F000E29206DD8D8B48B5D0EE28D
:101068003C502826000E29222950606F060E84EC79
:1010780013F028C060F0070E84EC13F03A50150AFC
:1010880018E13C502A2400018B6F000E2B2052D807
:10109800D8B48B5D0EE23C502A26000E2B222B5032
:1010A800606F080E84EC13F02AC060F0090E84EC1F
:1010B80013F03A50170A18E13C50302400018B6FA6
:1010C800000E312037D8D8B48B5D0EE23C50302664
:1010D800000E31223150606F0A0E84EC13F030C0DC
:1010E80060F00B0E84EC13F03A50190A18E13C50EA
:1010F800322400018B6F000E33201CD8D8B48B5DCE
:101108000EE23C503226000E33223350606F0C0E34
:1011180084EC13F032C060F00D0E84EC13F0010182
:10112800A2930FC19FF110C1A0F111C1A1F1A29525
:1011380002EF07F08C6F8C51800A7D0FE80C3A5053
:10114800080A08E1395006E0390639C060F0000E97
:1011580084EC13F03A500A0A36E13C502E5C000148
:101168008B6F000E2F588C6F8CBF2DD03C502E5E8D
:10117800000E2F5A2F50606F0E0E84EC13F02EC005
:1011880060F00F0E84EC13F02EC068F02FC069F0E9
:1011980051EC13F003D951EC13F068C06CF069C03E
:1011A8006DF06AC06EF035EC0EF06CC080F06DC06A
:1011B80081F06EC082F0B3EC0BF07DC0B2F07EC05F
:1011C800B3F07FC0B4F03A500C0A36E13C502C5CC6
:1011D80000018B6F000E2D588C6F8CBF2DD03C50AA
:1011E8002C5E000E2D5A2D50606F100E84EC13F0FB
:1011F8002CC060F0110E84EC13F02EC068F02FC0E4
:1012080069F051EC13F0CAD851EC13F068C06CF0D7
:1012180069C06DF06AC06EF035EC0EF06CC080F0FD
:101228006DC081F06EC082F0B3EC0BF07DC0B2F0FF
:101238007EC0B3F07FC0B4F03A500D0A08E13850D0
:1012480006E0380638C060F0010E84EC13F03A501E
:101258000F0A17E13C50345C00018B6F000E3558C3
:101268008C6F8CBF0ED03C50345E000E355A355012
:10127800606F020E84EC13F034C060F0030E84EC4F
:1012880013F03A50110A17E13C50365C00018B6F9D
:10129800000E37588C6F8CBF0ED03C50365E000E57
:1012A800375A3750606F040E84EC13F036C060F084
:1012B800050E84EC13F03A50130A17E13C50285CF1
:1012C80000018B6F000E29588C6F8CBF0ED03C50DC
:1012D800285E000E295A2950606F060E84EC13F020
:1012E80028C060F0070E84EC13F03A50150A17E195
:1012F8003C502A5C00018B6F000E2B588C6F8CBF02
:101308000ED03C502A5E000E2B5A2B50606F080EF0
:1013180084EC13F02AC060F0090E84EC13F03A5004
:10132800170A17E13C50305C00018B6F000E3158F2
:101338008C6F8CBF0ED03C50305E000E315A31504D
:10134800606F0A0E84EC13F030C060F00B0E84EC72
:1013580013F03A50190A17E13C50325C00018B6FC8
:10136800000E33588C6F8CBF0ED03C50325E000E8E
:10137800335A3350606F0C0E84EC13F032C060F0B7
:101388000D0E84EC13F00101A2930FC19FF110C15F
:10139800A0F111C1A1F1A29502EF07F068C07DF09C
:1013A80069C07EF06AC07FF06F6B7A0E706F440E72
:1013B800716F2CC068F02DC069F0440CE8CF13F0B1
:1013C80083D08084818E818281848188818C819A76
:1013D80012008094818EFAD08084818EE5D080843A
:1013E800818E818281848198819C818A1200809477
:1013F800818E818281948198818C818A1200808477
:10140800819EBED080841FD08084818E8182819409
:101418008198818C819A12008084818EABD08084DF
:101428004AD08094819E819281848198819C819AFE
:10143800120099D8819A818612008094819EC6D024
:101448008084A4D08094819E95D08084A6D08094F6
:10145800819EAAD08094818EB3D0808421D080844C
:10146800818EBAD08084819EA5D080948FD08094BC
:1014780094D08094819E818281948188819C818A84
:1014880012008094819E9CD08084818E93D0809419
:10149800819E819281948188819C818A12008094A6
:1014A800819E9AD08094819E818281848188819C4A
:1014B800819A12008094818E63D055D8818A120057
:1014C80052D8819A819612001350200AF9E0010A35
:1014D800B4E00C0AF2E01D0A01E173D7010A01E148
:1014E80078D7030A01E178D7010A01E178D7070A1A
:1014F80001E17DD7010A83E0030A84E0010A84E060
:101508000F0A8AE0010A8BE0780A9AE0020A9DE055
:10151800060AA3E0030AA6E00E0AA7E0040AA7E069
:101528001C0AB2E0030A01E16AD7310A8BE0010A1A
:101538008EE0070A8FE0010A92E00C0A01E17DD7EC
:10154800070A97E0010A9DE01D0AA1E0060AA7E044
:10155800010AA8E0030A01E16CD70E0A01E161D78C
:10156800010AA8E0ADD78094819E819281948198E8
:10157800819C1200818281848188818C818A1200F9
:10158800818281848198818C818A1200818E8182F6
:1015980081948188818C818A1200819E81928184C4
:1015A8008188818C819A1200819281848188819CB2
:1015B800818A1200819281948188818C818A1200AB
:1015C800818281848188819C818A120081828194B0
:1015D8008198819C819A1200819281848188818C72
:1015E800818A1200076A0750040DF3503D0FD96E27
:1015F800DA6ADECF01F0DDCF02F001C0D9FF02C008
:10160800DAFFDF50036E83D8DF50070B046E010E3C
:10161800056E042A02D0D8900536042EFCD7055052
:101628000314010ED8B4000E066E71D8064606469D
:101638000646DF500618F70B0618DF6E68D8DF3845
:10164800010B016E64D8DF30E832E832010B011873
:1016580054E05DD8DF50016E01AA1ED007505ED855
:1016680001A61AD007505AD801B816D00750040D51
:10167800F350400FD96EDA6ADF500BE048D8DF50DC
:10168800016E01AE03D0075058D806D04FD8DF06F8
:1016980003D04CD85AD8BC8D3AD8DF50016E01AC73
:1016A8001ED007503BD801B61AD0075037D801A82A
:1016B80016D00750040DF350400FD96EDA6ADF5088
:1016C8000BE025D8DF50016E01AE03D0075035D8A6
:1016D80006D02CD8DF0603D029D837D8BC9D17D818
:1016E800DF30E832E832010B016E11D8013ADF50E1
:1016F8000118EF0B0118DF6E05D018D8DF5002E093
:1017080015D8DF06072A030E07646DD7030C0750A8
:10171800040DF3503F0FD96EDA6A1200040DF3502E
:101728003F0FD96EDA6ADF50016E12000750040DC0
:10173800F350400FD96EDA6A1200040DF350400FCF
:10174800D96EDA6A640EDF6E640C640EDF6E000117
:10175800BC510718E00B0718BC6FBC8B12000F0EAA
:10176800836F7DC084F07EC085F07FC086F08329BA
:10177800876F01D0A9D8872FFDD784518A6F0F0EA4
:10178800836F80C084F081C085F082C086F0832991
:10179800876F01D099D8872FFDD78451896F8A51D7
:1017A80009E089518A610DD08A51895D836F190ECC
:1017B800835D07E380C07DF081C07EF082C07FF04A
:1017C8001200895109E08A5189610DD089518A5DD9
:1017D800836F190E835D07E37DC07DF07EC07EF0C8
:1017E8007FC07FF01200060E886F7FBF888F82BF90
:1017F800888D7E8F7F6B818F826B89518A6117D02C
:10180800D890803781378237890789518A190BE048
:10181800880700018851070B06E0F2D7D8907F337C
:101828007E337D338A2B89518A63F8D719D08A5140
:10183800896116D0D8907D377E377F378A078951DE
:101848008A190BE0880700018851070B06E0F2D7D8
:10185800D890823381338033892B89518A63F8D7B2
:1018680088AF07D07D1F7E1F7F1F7D2B000E7E2334
:101878007F2388AD02D0801F20D8886B7D518027B8
:101888007E5181237F51822382AF04D0801F15D8D7
:10189800010E886F80C060F081C061F082C062F084
:1018A8008AC063F088C064F064EC10F060C07DF01A
:1018B80061C07EF062C07FF01200811F821F802B02
:1018C800000E81238223000CD8908633853384331D
:1018D800120021EE27F010EE98F0090EDECFE6FF99
:1018E800E82EFCD721EE30F010EEA1F0090EDECF85
:1018F800E6FFE82EFCD7020EAA6FAA51030DBC0E14
:10190800F324D96EDA6A010EDA220001AA51030D16
:10191800BF0EF324E16EE26A010EE222DECFE6FF9B
:10192800DECFE6FFDECFE5FFAA51030DF350BA0F75
:10193800D96EDA6AAA51030DF350BD0FE16EE26A5F
:10194800DECFE6FFDECFE6FFDECFE5FFE552AA07F2
:10195800AA67D3D795C0BFF196C0C0F197C0C1F1AF
:1019680098C068F099C069F09AC06AF0BFC16BF07E
:10197800C0C16CF0C1C16DF0B8EC0DF068C0BDF02D
:1019880069C0BEF06AC0BFF0010EAA6FAA51030D6C
:10199800F350BD0FD96EDA6A4BD8A10FD96EDA6A47
:1019A800DECF68F0DECF69F0DDCF6AF0B8EC0DF07D
:1019B80068C08EF069C08FF06AC090F0AA51030D1C
:1019C800BF0EF324D96EDA6A010EDA22000130D88C
:1019D800980FD96EDA6ADECF68F0DECF69F0DDCF16
:1019E8006AF0B8EC0DF068C08BF069C08CF06AC082
:1019F8008DF06DEC13F08BC091F08CC092F08DC01F
:101A080093F0BD0EF7EC12F0AA2B020EAA65BED712
:101A1800A1C07DF0A2C07EF0A3C07FF0BD0E15EC82
:101A280013F0BDC095F0BEC096F0BFC097F012008D
:101A3800DECF6BF0DECF6CF0DDCF6DF0AA51030D79
:101A4800F350120013C0D9FF14C0DAFFF70EDF16E7
:101A58001750020A181029E165D819A011D020EEF4
:101A680003F01350D9261450DA2210EE01F061D891
:101A780010EE04F01350E1261450E222DFCFE7FF06
:101A880051D819A2120020EE03F01350D926145091
:101A9800DA2210EE02F04DD810EE05F01350E126D0
:101AA8001450E222DFCFE7FF1200185017100FE1A1
:101AB80039D819A004D020EE01F0135016D832D826
:101AC80019A2120020EE02F013500FD8000C2AD8E9
:101AD80019A004D020EE01F0135038D823D819A249
:101AE800120020EE02F0135031D0D9261450DA2219
:101AF80010EE06F01350E1261450E222E750196E5A
:101B080010EE03F01350E1261450E222E750192496
:101B1800DF6E20EE05F01350D9261450DA22000E9D
:101B2800DF6E000C13C0D9FF14C0DAFFDF50196E46
:101B380012001350E1261450E222DFCFE7FF20EE17
:101B480006F01350D9261450DA221200D926145060
:101B5800DA221550DF2620EE05F01350D92614504E
:101B6800DA221550DF5E12000F0E6E6F68C06FF03C
:101B780069C070F06AC071F06E29726F01D06CD8BC
:101B8800722FFDD76F51736F0001736704D0686BB4
:101B9800696B6A6B12000F0E6E6F6BC06FF06CC0D2
:101BA80070F06DC071F06E29726F01D055D8722F28
:101BB800FDD76F51786F0001786704D0686B696B47
:101BC8006A6B120078517B0F73276AC078F00001A6
:101BD8006D51781B800E7817698F6C8F000E6D170A
:101BE800746B756B766B070E776F68A102D06B51BB
:101BF8002DD8D8906A3369336833D8906B376C37EF
:101C08006D37772FF2D7090E776F68A102D06B5125
:101C18001DD8D8906A3369336833D89076337533D2
:101C28007433772FF2D774C060F075C061F076C056
:101C380062F073C063F078C064F064EC10F060C0C8
:101C480068F061C069F062C06AF0120074276C51D4
:101C580075236D5176231200D890713370336F332A
:101C680012000F0E726F6CC073F06DC074F06EC00E
:101C780075F07229766F01D060D8762FFDD7735131
:101C88007B6F00017B6704D06C6B6D6B6E6B120011
:101C98000F0E726F6FC073F070C074F071C075F082
:101CA8007229766F01D049D8762FFDD773517C6F92
:101CB80000017C6704D06C6B6D6B6E6B1200786BE7
:101CC800796B7A6B7C51890F7B5F6EC07CF0000169
:101CD80071517C1B800E7C176D8F6E6B708F716BD2
:101CE800180E776FD890783779377A376F516C5DDF
:101CF80070516D5971516E5907E36F516C5F705196
:101D08006D5B71516E5B7881D8906C376D376E372B
:101D1800772FE8D778C060F079C061F07AC062F0B8
:101D28007BC063F07CC064F064EC10F060C06CF0C1
:101D380061C06DF062C06EF01200D89075337433D4
:101D480073331200E8CF04F00450040DF3CF01F010
:101D5800030E012601018B0E0124D96EDA6A010EE9
:101D6800DA22DF50026E02B41200045040D8DECFEF
:101D780001F0DECF02F0DECF03F00350800A800FBF
:101D880005E1000E025C02E1010E015CD8A0120020
:101D980004502DD8FF0EDE06DE22DD22045027D89F
:101DA800DE50DE10DD10D8A41200045028D8020E30
:101DB800DF12045024D8DF50026E02A01200045033
:101DC800030D000EF324D96EDA6A010EDA220450EC
:101DD800040D8B0EF324E16EE26A010EE222DECFDF
:101DE800E6FFDECFE6FFDECFE5FFE5521200040D89
:101DF8008B0EF324D96EDA6A010EDA221200040D72
:101E0800F3CF01F0030E01268B0E0124D96EDA6A96
:101E1800010EDA221200E8CF63F0000150D8DF503B
:101E2800616F61B512006351FBEC0EF0DECF60F01C
:101E3800DECF61F0DECF62F06251800A800F05E1EB
:101E4800000E615D02E1010E605DD8A012006351D1
:101E5800FBEC0EF0FF0EDE06DE22DD2200016351F0
:101E6800040D01018B0EF324D96EDA6A010EDA2211
:101E7800DE50DE10DD10D8A41200000120D8020EBA
:101E8800DF121DD8DF50616F61A112006351030D8D
:101E9800000EF324D96EDA6A010EDA226351040DBA
:101EA80001018B0EF324E16EE26A010EE222DECF1D
:101EB800E6FFDECFE6FFDECFE5FFE5521200635115
:101EC800040DF3CF60F0030E60278B0E6025D96EEA
:101ED800DA6A010EDA2212000F0E44D86E6F000182
:101EE8006E6705D0606B616B626B636B1200170ED7
:101EF80039D8696F618F626B60516A6F61516B6F1E
:101F080062516C6F6D6B8E0E6E5F6EAF0CD06E5142
:101F1800800A8F0FE7E3D8906D336C336B336A33E5
:101F28006E3FF9D70CD0170E6E6507D0DBD7D89067
:101F38006A376B376C376D376E076E67F8D769513C
:101F480008E06D1F6C1F6B1F6A6D000E6B236C23FE
:101F58006D236AC060F06BC061F06CC062F06DC048
:101F680063F01200646F60C065F061C066F062C023
:101F780067F06429686F04D0D89067336633653397
:101F8800682FFAD7655112003B503CE03E0E3924C9
:101F9800D96EDA6A010EDA22DF50D66ED76A3B6A4A
:101FA800030E0001B9650FD00101010E146E430E36
:101FB800136E166A156A186A020E176E26EC0DF073
:101FC8000001B96B01D0B92B81960101010E146E85
:101FD800430E136EB6EC12F0E2EC09F009D0808AD9
:101FE80022D0818680821FD080801DD080881BD01F
:101FF8000001B951F4E0010AF4E0030AF5E0010A2E
:10200800F5E011D00101390E3924D96EDA6A010ED2
:10201800DA22DF50D66ED76A010E3B6E809080922E
:10202800809A80988196F29412000001B051AF1105
:10203800D8A4ADB31200B1C068F00D0EB16102D0E2
:10204800B12B01D0B16B010E606F616B626B636B7A
:102058006851E82A05D0D89060376137623763370E
:10206800E82EF9D7AF516015646FB0516115656FEF
:10207800666B676B6751641165116611DCE068C0B7
:1020880060F060476047C2506019C30B6019C26EA8
:1020980068C060F0010E616F626B602B03D0D8904E
:1020A80061376237602FFBD7611D636F621D646FF4
:1020B8006351AF176451B017AD83AD91C28212005E
:1020C800635104E060516111621106E1606B616B5C
:1020D800626B1200632B38D8656B666BFE0E621557
:1020E800676F65516611671107E0F4D7632B602BA2
:1020F800000E6123622328D8656B666B6251676F97
:1021080065516611671106E0F1D76307D89060370B
:102118006137623761AFF9D763A1619FD8906333A4
:102128006351676F666B656B655160136651611328
:10213800675162136451D8A4628F60C060F061C0B7
:1021480061F062C062F01200D8906233613360338C
:102158001200A2B303D00001606B0BD0A251FD0B9B
:10216800A26F0101A231010B000ED8B4010E0001CB
:10217800606F616B61516011D8B412000ED03A2AB9
:102188000101A2930FC19FF110C1A0F111C1A1F1EA
:10219800A2951200010E3A6E010C3A50090AEFE0BE
:1021A800030AEDE0010AEBE0070AF4E0020AE7E0BF
:1021B800010AE5E01F0AE3E0010AE1E0030ADFE0C3
:1021C800010ADDE0070ADBE0010AD9E0030AD7E0EB
:1021D800000AD5E0010AD3E00F0AD1E0010ADAD7F4
:1021E8000001666B6651040DF3503D0FD96EDA6A33
:1021F800DECF60F0DDCF61F060C0D9FF61C0DAFFEB
:10220800DF50626F2CD8DF50070B636F010E646FCD
:10221800632B02D0D8906437632FFCD764516215C2
:10222800010ED8B4000E656F1AD865476547654733
:10223800DF506519F70B6519DF6E11D8DF30E8320A
:10224800E832010B606F0BD8603BDF506019EF0B71
:102258006019DF6E662B030E6665C4D7030C6651E2
:10226800040DF3503F0FD96EDA6A120001EE8BF0BD
:102278003D0EEE6AE806FDE100EEADF01C0EEE6ADA
:10228800E806FDE100EE28F0140EEE6AE806FDE12E
:10229800DA0EF66E240EF76E000EF86E01EE00F000
:1022A80010EE4AF00900F5CFEEFFE550E150FAE1F3
:1022B800BA0EF66E270EF76E000EF86E00EEC9F035
:1022C80010EE05F00900F5CFEEFFE550E150FAE118
:1022D8008A0EF66E270EF76E000EF86E00EE3CF0D2
:1022E80010EE11F00900F5CFEEFFE550E150FAE1EC
:1022F800000148EF00F00600EACF1DF0E1CF1EF024
:10230800E2CF1FF0D9CF20F0DACF21F0F3CF22F0BF
:10231800F4CF23F0F6CF24F0F7CF25F0F8CF26F04E
:10232800F5CF27F0F2AA01D001D006D0F2A401D04F
:1023380001D002D0C8EC0FF027C0F5FF26C0F8FF87
:1023480025C0F7FF24C0F6FF23C0F4FF22C0F3FF27
:1023580021C0DAFF20C0D9FF1FC0E2FF1EC0E1FF85
:102368001DC0EAFF1CC0E9FF1BC0FBFF1AC0FAFF33
:102378001100FC0ED3166F86D08EF19EA2929F9C00
:10238800AFEC13F0D58CD59AD596070ED512D76A2F
:10239800F10ED66ED58EB192300EB112B184FA0E0E
:1023A800B36E240EB26EB180B18E92909292929AD0
:1023B800929692989294939E939293949398939CC6
:1023C800939A9396949C80908092809A8096809815
:1023D800B7EC0AF0819A8196829CF28AA082F28CEC
:1023E800F28EF28EF28C240C3A50020A03E1080EA7
:1023F8003A6E080C3A50030A03E10D0E3A6E0D0CC2
:102408003A50040A05E1010E3C6E0E0E3A6E0E0CAF
:102418003A50050A05E1010E3C6E090E3A6E090CA8
:102428003A50060A03E11A0E3A6E1A0C3A50070A95
:10243800D8A41200220E3A6E220C6A0569276B6B2B
:102448001ED06951D96EDA6A67C060F068C061F061
:10245800636B0A0E626FD8EC12F06051300FDF6EBA
:10246800690767C060F068C061F0636B0A0E626F4D
:1024780048EC12F060C067F061C068F06B2B6A51DD
:102488006B5DD8B01200DDD7656B666B6351621166
:102498001BE0010E646F04D0D89062376337642B59
:1024A80063AFFAD7D890653766376251605D63517C
:1024B800615905E36251605F6351615B6581D89042
:1024C80063336233642FEED765C060F066C061F095
:1024D80012000C00000C0000960000120000FA0028
:1024E80000120000020000010000060000020000C7
:1024F8000C00000800000A0000DA773ADAF73ADA46
:10250800773A00803FA2F4BF3C6A3FE7ECF1F6FB64
:10251800FBF6F1ECE703C9C9C9050505FA0EB36E68
:10252800240EB26E0C0EA6EC0EF0040EA6EC0EF005
:10253800020EA6EC0EF096B302D0086A0AD09651A5
:10254800FD0B966F01019631010B000ED8B4010EF8
:10255800086E096A09500810D8A4829CF6EC0AF0A3
:10256800A192120020EE04F01350D9261450DA225A
:10257800DF5007E113C0D9FF14C0DAFF000EDB8675
:10258800FF0C20EE04F01350D9261450DA22DF068F
:1025980020EE01F01350D9261450DA22DF50DF2A3A
:1025A800D96EDA6ADF5012006351621117E0010E2A
:1025B800646F04D0D89062376337642B63AFFAD75F
:1025C8006251605D6351615904E36251605F635118
:1025D800615BD89063336233642FF2D760C060F0D8
:1025E80061C061F01200E8CF94F09451D96EDA6AB4
:1025F800DECF7DF0DECF7EF0DDCF7FF091C080F0C2
:1026080092C081F093C082F0B3EC0BF09451D96E74
:10261800DA6A7DC0DEFF7EC0DEFF7FC0DDFFDD52EF
:102628001200E8CF80F08051D96EDA6ADECF6CF004
:10263800DECF6DF0DDCF6EF07DC06FF07EC070F044
:102648007FC071F035EC0EF08051D96EDA6A6CC03B
:10265800DEFF6DC0DEFF6EC0DDFFDD521200E8CF89
:102668007CF07C51D96EDA6ADECF68F0DECF69F093
:10267800DDCF6AF079C06BF07AC06CF07BC06DF08A
:10268800B8EC0DF07C51D96EDA6A68C0DEFF69C01B
:10269800DEFF6AC0DDFFDD52120000016B6B69AF1F
:1026A80006D0686D691FD8B0692B010E6B6F68C0C2
:1026B80060F069C061F0626B8E0E636F6BC064F08E
:1026C80064EC10F060C068F061C069F062C06AF044
:1026D8001200800E901B8BC07DF08CC07EF08DC0E8
:1026E8007FF08EC080F08FC081F090C082F0B3EC94
:1026F8000BF07DC08BF07EC08CF07FC08DF0120097
:10270800E8CF61F060C0A8FF61C0A9FFA69EA69CA3
:10271800A684F29E550EA76EAA0EA76EA68201D0B9
:1027280000F0A6B2FDD7A694F28E1200010E3A6E02
:10273800829C300E0001C96FCA6FCB6F200ECC6F20
:102748000101BE9324C1BBF125C1BCF126C1BDF175
:10275800BE95BE81200C0F0EC112C050F80B0609A1
:10276800C06EC70EC016C08EC2809E9C9D8CC70CC2
:10277800E8CF60F060C0A9FFA69CA69EA680A850DE
:10278800120001820FD800820FD900820FB8008290
:102798000FB90000C230E8320F0B0001AE6FAD81F7
:1027A8009E9C1200AD93AD91C3CF60F0C4CF61F091
:0827B800120020202020000087
:020000040020DA
:080000000000000000000000F8
:020000040030CA
:04000000040E0E1EBE
:02000500018078
:06000800000000800F4023
:0200000400F00A
:1000000000000000000000000000000000000001EF
:080010000000000000000000E8
:00000001FF
