:0400000046EF00F0D7
:10000800E1CF1CF0E2CF1DF0D9CF1EF086ED13F042
:10001800D8CF0CF0E8CF0DF0E0CF0EF0E1CF0FF025
:10002800E2CF10F0D9CF11F0DACF12F0F3CF13F0FE
:10003800F4CF14F0A0A201D001D007D0A1A201D022
:1000480001D003D09CEC12F00AD09DAC01D001D0B5
:1000580006D09EAC01D001D002D0C7EC13F014C07A
:10006800F4FF13C0F3FF12C0DAFF11C0D9FF10C0AC
:10007800E2FF0FC0E1FF0EC0E0FF0DC0E8FF0CC0BB
:10008800D8FF10007FEF11F0C4EC0EF0C4EC11F0B3
:10009800010EC66F000EBEEC13F0316E010EBEEC01
:1000A80013F0306E266A276A0E0EBEEC13F0BB6F93
:1000B800BA6BBA512612BB5127120F0EBEEC13F0C1
:1000C8002612246A256A100EBEEC13F0BB6FBA6BB9
:1000D800BA512412BB512512110EBEEC13F0241292
:1000E80026C068F027C069F03DEC13F082EC09F0F7
:1000F8003DEC13F068C06CF069C06DF06AC06EF03A
:1001080053EC0EF06CC080F06DC081F06EC082F0D0
:10011800D1EC0BF02C6A2D6A020EBEEC13F0BB6F0B
:10012800BA6BBA512C12BB512D12030EBEEC13F050
:100138002C122E6A2F6A040EBEEC13F0BB6FBA6B3A
:10014800BA512E12BB512F12050EBEEC13F02E120F
:10015800206A216A060EBEEC13F0BB6FBA6BBA5167
:100168002012BB512112070EBEEC13F02012226A96
:10017800236A080EBEEC13F0BB6FBA6BBA51221299
:10018800BB512312090EBEEC13F02212286A296A09
:100198000A0EBEEC13F0BB6FBA6BBA512812BB51F2
:1001A80029120B0EBEEC13F028122A6A2B6A0C0EC9
:1001B800BEEC13F0BB6FBA6BBA512A12BB512B12AB
:1001C8000D0EBEEC13F02A12828C380ECE6FCF6F54
:1001D800D06F780ED16F0101A1930CC19EF10DC1B2
:1001E8009FF10EC1A0F1A195A181B19318C1AEF103
:1001F80019C1AFF11AC1B0F1B195B5931BC1B2F1F4
:100208001CC1B3F11DC1B4F1B595A1B302D0506BB7
:100218000AD0A151FD0BA16F0101A131010B000E04
:10022800D8B4010E506F516B515150111EE0000EA1
:100238009EEC0FF0010E9EEC0FF0080E9EEC0FF0F6
:10024800090E9EEC0FF0030E9EEC0FF0050E9EECCF
:100258000FF0070E9EEC0FF0060E9EEC0FF00A0E44
:100268009EEC0FF00B0E9EEC0FF001019DB302D037
:10027800526B0AD09D51FD0B9D6F01019D31010B01
:10028800000ED8B4010E526F536B5351521102E055
:10029800010E326E38EC11F0010191B302D0546BAB
:1002A8000AD09151FD0B916F01019131010B000EA4
:1002B800D8B4010E546F556B5551541130E0EAEC27
:1002C80006F0CAEC06F0FFEC11F0010E0001C76F52
:1002D80032500F0A1DE03250110A1AE03250130A48
:1002E80017E03250150A14E03250170A11E0325064
:1002F800190A0EE032500A0A0BE032500C0A08E0E4
:100308000ED00A0E03D0640E01D0010E426E07D043
:100318004250010AF6E00B0AF6E06E0AF6E0010127
:1003280095B302D0566B0AD09551FD0B956F01011C
:100338009531010B000ED8B4010E566F576B57510B
:10034800561130E0EAEC06F0CAEC06F0FFEC11F0CA
:10035800010E0001C76F32500F0A1DE03250110A1A
:100368001AE03250130A17E03250150A14E03250DE
:10037800170A11E03250190A0EE032500A0A0BE04F
:1003880032500C0A08E00ED0640E03D0010E01D0E2
:100398000A0E426E07D04250010AF6E00B0AF6E058
:1003A8006E0AF6E032663DD00101B5B302D0586B53
:1003B8000AD0B551FD0BB56F0101B531010B000E27
:1003C800D8B4010E586F596B5951581113E0B593B1
:1003D8001BC1B2F11CC1B3F11DC1B4F1B595000147
:1003E800D151780A02E1210E04D0D151210A02E14B
:1003F800760ED16F0101B1B302D05A6B0AD0B15158
:10040800FD0BB16F0101B131010B000ED8B4010E23
:100418005A6F5B6B5B515A1101E1D0D39CEC13F01E
:10042800CDD3320401E088D1A4EC10F00101C1B3AE
:1004380002D05C6B0AD0C151FD0BC16F0101C13103
:10044800010B000ED8B4010E5C6F5D6B5D515C1141
:1004580002E00001BF890001BCA1B0D3BD510C0A64
:1004680001E0ACD3CFEC13F060C068F061C069F074
:100478003DEC13F068C095F069C096F06AC097F03B
:100488008BEC0CF095C0ABF096C0ACF097C0ADF01B
:10049800FFEC0FF0ABC0C3F0ACC0C4F0E80EC35D16
:1004A800030EC45904E3030EC46FE70EC36FC3C041
:1004B80067F0C4C068F0CE0E696F030E6A6F50EC27
:1004C80012F023D1200E42D1C3512C5CC4512D58B7
:1004D80005E22E50C35D2F50C45902E32D0E36D1CC
:1004E800C3512C5CC4512D5805E22050C35D2150E6
:1004F800C4590AE3C351225CC451235807E22E5061
:10050800C35D2F50C45902E2780E20D1C351205C3C
:10051800C451215805E22850C35D2950C4590AE343
:10052800C3512A5CC4512B5807E22250C35D2350A3
:10053800C45902E2210E0AD12850C35D2950C4597A
:1005480001E23CD3C3512A5CC4512B5801E236D393
:1005580025D2C3512C5CC4512D58D6E22E50C35D10
:100568002F50C459D1E2C3512C5CC4512D5805E217
:100578002850C35D2950C459DDE3C3512A5CC451D6
:100588002B5805E22E50C35D2F50C459D3E3285091
:10059800C35D2950C45901E211D3C3512A5CC45127
:1005A8002B5801E3FBD10AD3C3512C5CC4512D58FD
:1005B80001E3F4D12E50C35D2F50C45901E3EED1AD
:1005C800C3512C5CC4512D5805E22850C35D2950F5
:1005D800C459B0E3C3512A5CC4512B5805E22E50CC
:1005E800C35D2F50C459A6E32850C35D2950C45990
:1005F80001E2E4D2C3512A5CC4512B5885E2DED211
:10060800C3512E5CC4512F5801E37ED7C3512E5CD1
:10061800C4512F5805E22850C35D2950C4598AE3B4
:100628002850C35D2950C459BCD7C3512A5CC45152
:100638002B5801E3B3D1C3512A5CC4512B5806E2AD
:100648002850C35D2950C45901E274D72850C35DAE
:100658002950C459D3D7C3512E5CC4512F5806E32F
:100668002050C35D2150C45901E34ED7C3512E5CBD
:10067800C4512F5806E22850C35D2950C45901E2DD
:1006880059D72050C35D2150C45901E253D7C351F3
:10069800225CC451235801E24DD72850C35D29502C
:1006A800C45901E28BD2C351225CC451235879D773
:1006B800C3512A5CC4512B5806E32050C35D215016
:1006C800C45901E36BD1C3512A5CC4512B5806E2CB
:1006D8002C50C35D2D50C45901E22CD72050C35D66
:1006E8002150C45901E226D7C351225CC451235872
:1006F80001E220D72C50C35D2D50C45901E25ED2CF
:10070800C351225CC451235879D7305001E1DAD65D
:10071800010A01E1D9D6030A01E11BD7010A01E167
:1007280043D7070A01E16CD7010A01E17ED7030A22
:1007380092E0010ABDE042D23250020A09E1620E9B
:100748000001CE6F720ECF6F690E23D0D16F36D2F3
:100758003250030A07E16E0E0001CE6F6F0ECF6FA5
:10076800640E17D03250040A07E14C0E0001CE6F18
:10077800690ECF6F6E0E0DD03250050A05E1450E99
:100788000001CE6F530EC0D03250060A04E1750E38
:1007980006D0D06F97D63250070A07E1460E0001FF
:1007A800CE6F430ECF6F410EF4D73250080A39E1AD
:1007B8000101ADB302D05E6B04D0FADAD8B4010EF1
:1007C8005E6F5F6B5F515E1101E0E0DAA9B302D0A2
:1007D800606B04D0F4DAD8B4010E606F616B6151BC
:1007E800601101E0DCDAA9B517D021EEA6F0DE50E1
:1007F800DE10DD1011E0200E0001D16F31C0C1F014
:10080800C26BC1C067F0C2C068F0D00E696F010E3C
:100818006A6F50EC12F0D2D1200E0001CE6FCF6F6C
:10082800B8D732500D0A29E10101ADB302D0626B8D
:1008380004D0BEDAD8B4010E626F636B63516211E3
:1008480001E0A4DAA9B302D0646B04D0B8DAD8B452
:10085800010E646F656B6551641101E0A0DAA9B5FA
:10086800DBD721EEA6F0DE50DE10DD10D5E0200E3D
:100878000001D16F30C0C1F0C3D73250090A07E177
:10088800450E0001CE6F6E0ECF6F740E82D73250B8
:100898000A0A33E10101ADB302D0666B04D088DAED
:1008A800D8B4010E666F676B6751661101E06EDAA6
:1008B800A9B302D0686B04D082DAD8B4010E686F8D
:1008C800696B6951681101E06ADAA9B5A5D721EE0B
:1008D800A6F0DE50DE10DD109FE026C0C1F027C074
:1008E800C2F0C1C067F0C2C068F00001CE0E696FE7
:1008F800030E6A6F50EC12F061D132500B0A07E117
:10090800640E0001CE6F450ECF6F630E42D7325092
:100918000C0A29E10101ADB302D06A6B04D048DAB0
:10092800D8B4010E6A6F6B6B6B516A1101E02EDA55
:10093800A9B302D06C6B04D042DAD8B4010E6C6F44
:100948006D6B6D516C1101E02ADAA9B565D721EEFE
:10095800A6F0DE50DE10DD1001E15ED724C0C1F044
:1009680025C0C2F0BED732500E0A02E164DA04D0C4
:100978003250100A03E165DAD06FC6D53250120A38
:1009880002E159DA04D03250140A03E15ADAD06F7E
:10099800D1D53250160A04E14EDA06D0760ED6D6F4
:1009A8003250180A03E14DDAD06FF8D732500F0AE7
:1009B80029E10101ADB302D06E6B04D0F9D9D8B4E6
:1009C800010E6E6F6F6B6F516E1101E0DFD9A9B325
:1009D80002D0706B04D0F3D9D8B4010E706F716B6C
:1009E8007151701101E0DBD9A9B516D721EEA6F037
:1009F800DE50DE10DD1001E10FD72CC0C1F02DC094
:100A0800C2F06FD73250110A29E10101ADB302D00B
:100A1800726B04D0CDD9D8B4010E726F736B735159
:100A2800721101E0B3D9A9B302D0746B04D0C7D94D
:100A3800D8B4010E746F756B7551741101E0AFD99C
:100A4800A9B5EAD621EEA6F0DE50DE10DD1001E1F0
:100A5800E3D62EC0C1F02FC0C2F043D73250130ADC
:100A680029E10101ADB302D0766B04D0A1D9D8B485
:100A7800010E766F776B7751761101E087D9A9B3AC
:100A880002D0786B04D09BD9D8B4010E786F796BFB
:100A98007951781101E083D9A9B5BED621EEA6F027
:100AA800DE50DE10DD1001E1B7D620C0C1F021C054
:100AB800C2F017D73250150A29E10101ADB302D0AF
:100AC8007A6B04D075D9D8B4010E7A6F7B6B7B51E1
:100AD8007A1101E05BD9A9B302D07C6B04D06FD93D
:100AE800D8B4010E7C6F7D6B7D517C1101E057D924
:100AF800A9B592D621EEA6F0DE50DE10DD1001E198
:100B08008BD622C0C1F023C0C2F0EBD63250170AF0
:100B180029E10101ADB302D07E6B04D049D9D8B424
:100B2800010E7E6F7F6B7F517E1101E02FD9A9B333
:100B380002D0806B04D043D9D8B4010E806F816B8A
:100B48008151801101E02BD9A9B566D621EEA6F016
:100B5800DE50DE10DD1001E15FD628C0C1F029C0EB
:100B6800C2F0BFD63250190A29E10101ADB302D053
:100B7800826B04D01DD9D8B4010E826F836B835168
:100B8800821101E003D9A9B302D0846B04D017D92C
:100B9800D8B4010E846F856B8551841101E0FFD8AC
:100BA800A9B53AD621EEA6F0DE50DE10DD1001E13F
:100BB80033D62AC0C1F02BC0C2F093D60001C8AB0F
:100BC80006D0C8511F0B020A02E1C8BD03D00101BB
:100BD800866B02D011D9866F876B875186111BE00F
:100BE8000001C75102E0C76B16D001018E6B8F6BF5
:100BF800906B9185325007E0070E326004D0322A9C
:100C080010D906D908D03250070A03E1020E326E15
:100C1800F7D72BEC07F00001C8AB06D0C8511F0B63
:100C2800030A02E1C8BD03D00101886B02D0E4D8F1
:100C3800886F896B895188111BE00001C75102E058
:100C4800C76B16D00101926B936B946B95853250EC
:100C580007E0070E326004D0322AE3D8D9D808D08A
:100C68003250070A03E1020E326EF7D75FEC08F044
:100C78000001C8AB05D0C8511F0B02E1C8AD03D0B5
:100C880001018A6B02D0B8D88A6F8B6B8B518A119D
:100C980032E03250020A27E03250030A24E0325090
:100CA800040A21E03250050A1EE032500A0A1BE00D
:100CB80032500C0A18E03250060A15E03250070A82
:100CC80012E032500F0A0FE03250110A0CE0325095
:100CD800130A09E03250150A06E03250170A03E0F9
:100CE8003250190A08E1919300C18EF101C18FF1C8
:100CF80002C190F191950001C8AB07D0C8511F0BF4
:100D0800BA6FBA0502E1C8AD03D001018C6B02D0FD
:100D180073D88C6F8D6B8D518C1102E109EF01F046
:100D28003250020A29E03250030A26E03250040AFF
:100D380023E03250050A20E032500A0A1DE0325002
:100D48000C0A1AE03250060A17E03250070A14E07B
:100D580032500F0A11E03250110A0EE03250130AD5
:100D68000BE03250150A08E03250170A05E03250FD
:100D7800190A02E009EF01F0959303C192F104C149
:100D880093F105C194F1959509EF01F0A99312C16A
:100D9800A6F113C1A7F114C1A8F1A9951200AD934A
:100DA80015C1AAF116C1ABF117C1ACF1AD9512008E
:100DB800AD51FD0BAD6F0101AD31010B000CA95117
:100DC800FD0BA96F0101A931010B000C9A6B9B6BFC
:100DD8009C6B9D85828C999306C196F107C197F10A
:100DE80008C198F19995A5930FC1A2F110C1A3F17B
:100DF80011C1A4F1A5951200C851DF0BC86F0001FD
:100E0800C839E832010B000ED8B4010E01011200F6
:100E1800999306C196F107C197F108C198F1999580
:100E28001200828C9D9309C19AF10AC19BF10BC1F2
:100E38009CF19D951200200E0001CE6F4C0ECF6FD5
:100E48006F0C200E0001CE6F480ECF6F690C325028
:100E5800080A09E1040E316006D0312A31C060F079
:100E6800000E70EC13F032500A0A32E14250262488
:100E780000018B6F000E272019D9D8B48B5D28E2AA
:100E880042502626000E27222750606F0E0E70EC67
:100E980013F026C060F00F0E70EC13F026C068F057
:100EA80027C069F03DEC13F082EC09F03DEC13F03B
:100EB80068C06CF069C06DF06AC06EF053EC0EF05B
:100EC8006CC080F06DC081F06EC082F0D1EC0BF088
:100ED80032500C0A32E14250242400018B6F000E7C
:100EE8002520E4D8D8B48B5D28E242502426000E91
:100EF80025222550606F100E70EC13F024C060F0AE
:100F0800110E70EC13F026C068F027C069F03DECB4
:100F180013F082EC09F03DEC13F068C06CF069C086
:100F28006DF06AC06EF053EC0EF06CC080F06DC0CE
:100F380081F06EC082F0D1EC0BF032500D0A09E15D
:100F4800070E306006D0302A30C060F0010E70EC19
:100F580013F032500F0A18E142502C2400018B6F15
:100F6800000E2D20A3D8D8B48B5D0EE242502C265B
:100F7800000E2D222D50606F020E70EC13F02CC065
:100F880060F0030E70EC13F03250110A18E1425071
:100F98002E2400018B6F000E2F2088D8D8B48B5DCB
:100FA8000EE242502E26000E2F222F50606F040EA4
:100FB80070EC13F02EC060F0050E70EC13F0325098
:100FC800130A18E14250202400018B6F000E2120E3
:100FD8006DD8D8B48B5D0EE242502026000E212237
:100FE8002150606F060E70EC13F020C060F0070E01
:100FF80070EC13F03250150A18E142502224000117
:101008008B6F000E232052D8D8B48B5D0EE242506D
:101018002226000E23222350606F080E70EC13F076
:1010280022C060F0090E70EC13F03250170A18E174
:101038004250282400018B6F000E292037D8D8B4DD
:101048008B5D0EE242502826000E29222950606F3F
:101058000A0E70EC13F028C060F00B0E70EC13F061
:101068003250190A18E142502A2400018B6F000EF1
:101078002B201CD8D8B48B5D0EE242502A26000ED5
:101088002B222B50606F0C0E70EC13F02AC060F00E
:101098000D0E70EC13F00101A5930FC1A2F110C160
:1010A800A3F111C1A4F1A595CAEF06F08C6F8C517C
:1010B800800A7D0FE80C3250080A08E1315006E03A
:1010C800310631C060F0000E70EC13F032500A0A9D
:1010D80030E14250265C00018B6F000E27588C6F60
:1010E8008CBF27D04250265E000E275A2750606FCB
:1010F8000E0E70EC13F026C060F00F0E70EC13F0BB
:1011080026C068F027C069F03DEC13F0F7D83DEC35
:1011180013F068C06CF069C06DF06AC06EF053ECF3
:101128000EF06CC080F06DC081F06EC082F0D1EC22
:101138000BF032500C0A30E14250245C00018B6FF6
:10114800000E25588C6F8CBF27D04250245E000EAD
:10115800255A2550606F100E70EC13F024C060F013
:10116800110E70EC13F026C068F027C069F03DEC52
:1011780013F0C4D83DEC13F068C06CF069C06DF092
:101188006AC06EF053EC0EF06CC080F06DC081F058
:101198006EC082F0D1EC0BF032500D0A08E13050ED
:1011A80006E0300630C060F0010E70EC13F03250EB
:1011B8000F0A17E142502C5C00018B6F000E2D586E
:1011C8008C6F8CBF0ED042502C5E000E2D5A2D50C5
:1011D800606F020E70EC13F02CC060F0030E70EC20
:1011E80013F03250110A17E142502E5C00018B6F48
:1011F800000E2F588C6F8CBF0ED042502E5E000E02
:101208002F5A2F50606F040E70EC13F02EC060F050
:10121800050E70EC13F03250130A17E14250205CAF
:1012280000018B6F000E21588C6F8CBF0ED042507E
:10123800205E000E215A2150606F060E70EC13F0EC
:1012480020C060F0070E70EC13F03250150A17E159
:101258004250225C00018B6F000E23588C6F8CBFAC
:101268000ED04250225E000E235A2350606F080EA3
:1012780070EC13F022C060F0090E70EC13F03250DD
:10128800170A17E14250285C00018B6F000E29589D
:101298008C6F8CBF0ED04250285E000E295A295000
:1012A800606F0A0E70EC13F028C060F00B0E70EC43
:1012B80013F03250190A17E142502A5C00018B6F73
:1012C800000E2B588C6F8CBF0ED042502A5E000E39
:1012D8002B5A2B50606F0C0E70EC13F02AC060F084
:1012E8000D0E70EC13F00101A5930FC1A2F110C10E
:1012F800A3F111C1A4F1A595CAEF06F068C07DF06D
:1013080069C07EF06AC07FF06F6B7A0E706F440E12
:10131800716F24C068F025C069F0440C096A09504F
:10132800040D390EF324D96EDA6A010EDA22DECF03
:1013380001F0DDCF02F001C0D9FF02C0DAFFDF50B3
:10134800036E0950040DF3CF04F0020E0426390E83
:101358000424D96EDA6A010EDA22DF50070B056E13
:10136800010E066E052A02D0D8900636052EFCD747
:1013780006500314010ED8B4000E076E0950040D70
:10138800F3CF08F0020E0826390E0824D96EDA6A5F
:10139800010EDA22074607460746DF500718F70B03
:1013A8000718DF6E0950040DF3CF01F0020EC5D8FF
:1013B800DF38010BCAD82CEC0FF0021801E1A9D0D4
:1013C8000950040DF3CF01F0020EB7D8DF50026EBA
:1013D80002AA3FD00950040DF3CF01F0020EADD898
:1013E800DF50026E02A635D00950040DF3CF01F08C
:1013F800020EA3D8DF50026E02B82BD00950040D9C
:10140800F3CF01F0030E99D8DF501BE00950040D0B
:10141800F3CF01F0020E91D8DF50026E02AE09D070
:101428000950040DF3CF01F0030E87D8640EDF6E68
:1014380010D00950040DF3CF01F0030E7ED8DF065B
:1014480008D00950040DF3CF01F0030E76D887D8E1
:10145800C88D0950040DF3CF01F0020E6ED8DF508D
:10146800026E02AC3FD00950040DF3CF01F0020E1A
:1014780064D8DF50026E02B635D00950040DF3CFA0
:1014880001F0020E5AD8DF50026E02A82BD0095084
:10149800040DF3CF01F0030E50D8DF501BE00950C4
:1014A800040DF3CF01F0020E48D8DF50026E02AEF1
:1014B80009D00950040DF3CF01F0030E3ED8640E95
:1014C800DF6E10D00950040DF3CF01F0030E35D8AC
:1014D800DF0608D00950040DF3CF01F0030E2DD814
:1014E8003ED8C89D0950040DF3CF01F0020E012625
:1014F8000101390E01242CEC0FF027D8D96EDA6AD5
:10150800010EDA22023ADF500218EF0B0218DF6EE2
:101518000FD00950040DF3CF01F0030E0ED8DF50A1
:1015280007E00950040DF3CF01F0030E06D8DF06DB
:10153800092A030E0964F3D6030C0126390E012487
:10154800D96EDA6A010EDA221200026E0950040D11
:10155800F3CF03F0020E0326390E03241200640EA3
:10156800DF6E0001C8510918E00B0918C86FC88B55
:101578001200E8CF15F083D08084818E8182818427
:101588008188818C819A12008094818EEED080842B
:10159800818EF7D08084818E818281848198819C1C
:1015A800818A12008094818E818281948198818CB5
:1015B800818A12008084819EB8D080841FD0808464
:1015C800818E818281948198818C819A1200808495
:1015D800818EB1D080844AD08094819E819281840A
:1015E8008198819C819A120099D8819A81861200EB
:1015F8008094819EBAD08084ABD08094819E9BD009
:1016080080849FD08094819EBCD08094818EA7D006
:10161800808421D08084818EAED08084819EB7D092
:10162800809496D080948DD08094819E818281947C
:101638008188819C818A12008094819E90D08084C8
:10164800818EA5D08094819E819281948188819C8D
:10165800818A12008094819E8ED08094819E81829E
:1016680081848188819C819A12008094818E5DD0CA
:1016780055D8818A120052D8819A81961200155045
:10168800200AF9E0010AB4E00C0AF2E01D0A01E1BF
:1016980073D7010A01E178D7030A01E178D7010A73
:1016A80001E178D7070A01E17DD7010A83E0030A3F
:1016B80084E0010A84E00F0A8AE0010A8BE0780AD4
:1016C8009AE0020A9DE0060AA3E0030AA6E00E0AD1
:1016D800A7E0040AA7E01C0AB2E0030A01E16AD7FE
:1016E800310A8BE0010A8EE0070A8FE0010A92E0D6
:1016F8000C0A01E17DD7070A97E0010A9DE01D0A5F
:10170800A1E0060AA7E0010AA8E0030A01E16CD7F4
:101718000E0A01E161D7010AA8E0ADD78094819E45
:10172800819281948198819C120081828184819820
:10173800818C818A1200818281848188818C818A4E
:101748001200819E819281848188818C819A120005
:10175800818E818281948188818C818A1200818224
:1017680081848188819C818A1200818281948198F8
:10177800819C819A1200819281848188818C818ADE
:101788001200819281848188819C818A12008192D1
:1017980081948188818C818A12000F0E836F7DC0AD
:1017A80084F07EC085F07FC086F08329876F01D0E2
:1017B800A9D8872FFDD784518A6F0F0E836F80C0F9
:1017C80084F081C085F082C086F08329876F01D0BC
:1017D80099D8872FFDD78451896F8A5109E089519B
:1017E8008A610DD08A51895D836F190E835D07E385
:1017F80080C07DF081C07EF082C07FF012008951E8
:1018080009E08A5189610DD089518A5D836F190E6B
:10181800835D07E37DC07DF07EC07EF07FC07FF0F2
:101828001200060E886F7FBF888F82BF888D7E8FDB
:101838007F6B818F826B89518A6117D0D8908037EE
:1018480081378237890789518A190BE08807000197
:101858008851070B06E0F2D7D8907F337E337D336B
:101868008A2B89518A63F8D719D08A51896116D091
:10187800D8907D377E377F378A0789518A190BE0E0
:10188800880700018851070B06E0F2D7D890823309
:1018980081338033892B89518A63F8D788AF07D081
:1018A8007D1F7E1F7F1F7D2B000E7E237F2388AD2B
:1018B80002D0801F20D8886B7D5180277E518123DC
:1018C8007F51822382AF04D0801F15D8010E886F04
:1018D80080C060F081C061F082C062F08AC063F0AD
:1018E80088C064F0EFEC10F060C07DF061C07EF05D
:1018F80062C07FF01200811F821F802B000E81239F
:101908008223000CD890863385338433120021EE6D
:1019180027F010EE98F0090EDECFE6FFE82EFCD790
:1019280021EE30F010EEA1F0090EDECFE6FFE82E32
:10193800FCD7020EAA6FAA51030DBF0EF324D96E6D
:10194800DA6A010EDA220001AA51030DC20EF3244D
:10195800E16EE26A010EE222DECFE6FFDECFE6FFAD
:10196800DECFE5FFAA51030DF350310FD96EDA6AC5
:10197800AA51030DF350340FE16EE26ADECFE6FFA1
:10198800DECFE6FFDECFE5FFE552AA07AA67D3D789
:1019980095C0C2F196C0C3F197C0C4F198C068F071
:1019A80099C069F09AC06AF0C2C16BF0C3C16CF00B
:1019B800C4C16DF0D6EC0DF068C034F069C035F0E4
:1019C8006AC036F0010EAA6FAA51030DF350340F06
:1019D800D96EDA6A4BD8A10FD96EDA6ADECF68F011
:1019E800DECF69F0DDCF6AF0D6EC0DF068C08EF07E
:1019F80069C08FF06AC090F0AA51030DC20EF3249B
:101A0800D96EDA6A010EDA22000130D8980FD96E41
:101A1800DA6ADECF68F0DECF69F0DDCF6AF0D6ECA7
:101A28000DF068C08BF069C08CF06AC08DF059EC7D
:101A380013F08BC091F08CC092F08DC093F0340EEF
:101A48001FEC13F0AA2B020EAA65BED7A1C07DF029
:101A5800A2C07EF0A3C07FF0340E01EC13F034C0B6
:101A680095F035C096F036C097F01200DECF6BF0D7
:101A7800DECF6CF0DDCF6DF0AA51030DF3501200EC
:101A880015C0D9FF16C0DAFFF70EDF161950020A83
:101A98001A1029E165D81BA011D020EE03F01550CB
:101AA800D9261650DA2210EE01F061D810EE04F0B3
:101AB8001550E1261650E222DFCFE7FF51D81BA2CE
:101AC800120020EE03F01550D9261650DA2210EE37
:101AD80002F04DD810EE05F01550E1261650E2221E
:101AE800DFCFE7FF12001A5019100FE139D81BA0F9
:101AF80004D020EE01F0155016D832D81BA21200DF
:101B080020EE02F015500FD8000C2AD81BA004D0E4
:101B180020EE01F0155038D823D81BA2120020EE71
:101B280002F0155031D0D9261650DA2210EE06F000
:101B38001550E1261650E222E7501B6E10EE03F016
:101B48001550E1261650E222E7501B24DF6E20EEE6
:101B580005F01550D9261650DA22000EDF6E000C5B
:101B680015C0D9FF16C0DAFFDF501B6E12001550E2
:101B7800E1261650E222DFCFE7FF20EE06F01550EF
:101B8800D9261650DA221200D9261650DA22175012
:101B9800DF2620EE05F01550D9261650DA22175008
:101BA800DF5E12000F0E6E6F68C06FF069C070F0D4
:101BB8006AC071F06E29726F01D06CD8722FFDD790
:101BC8006F51736F0001736704D0686B696B6A6B40
:101BD80012000F0E6E6F6BC06FF06CC070F06DC0AE
:101BE80071F06E29726F01D055D8722FFDD76F51E1
:101BF800786F0001786704D0686B696B6A6B1200B4
:101C080078517B0F73276AC078F000016D51781BFB
:101C1800800E7817698F6C8F000E6D17746B756B5B
:101C2800766B070E776F68A102D06B512DD8D890CC
:101C38006A3369336833D8906B376C376D37772FD1
:101C4800F2D7090E776F68A102D06B511DD8D890D2
:101C58006A3369336833D890763375337433772FA2
:101C6800F2D774C060F075C061F076C062F073C0DE
:101C780063F078C064F0EFEC10F060C068F061C009
:101C880069F062C06AF0120074276C5175236D51B7
:101C980076231200D890713370336F3312000F0E11
:101CA800726F6CC073F06DC074F06EC075F07229FD
:101CB800766F01D060D8762FFDD77351786F000109
:101CC800786704D06C6B6D6B6E6B12000F0E726FC1
:101CD8006FC073F070C074F071C075F07229766FC0
:101CE80001D049D8762FFDD773517C6F00017C67EE
:101CF80004D06C6B6D6B6E6B1200796B7A6B7B6BBF
:101D08007C51890F785F6EC07CF0000171517C1B9B
:101D1800800E7C176D8F6E6B708F716B180E776FDE
:101D2800D89079377A377B376F516C5D70516D5920
:101D380071516E5907E36F516C5F70516D5B715152
:101D48006E5B7981D8906C376D376E37772FE8D70F
:101D580079C060F07AC061F07BC062F078C063F04F
:101D68007CC064F0EFEC10F060C06CF061C06DF006
:101D780062C06EF01200D89075337433733312005A
:101D88000001686B6851040D390EF324D96EDA6AC4
:101D9800010EDA22DECF60F0DDCF61F060C0D9FF3E
:101DA80061C0DAFFDF500001626F6851040DF3CFA4
:101DB80063F0020E6327390E6325D96EDA6A010EC5
:101DC800DA22DF50070B646F010E656F642B02D0B7
:101DD800D8906537642FFCD765516215010ED8B4C9
:101DE800000E666F6851040DF3CF67F0020E672787
:101DF800390E00016725D96EDA6A010EDA226647C4
:101E080066476647DF506619F70B6619DF6E68513B
:101E1800040DF3CF60F0020E6027390E602518D844
:101E2800616F6851040DF3CF62F0020E6227390E1C
:101E38006225D96EDA6A010EDA22613BDF50611938
:101E4800EF0B6119DF6E682B030E68659BD7030CD7
:101E5800D96EDA6A010EDA22DF30E832E832010B95
:101E68001200E8CF04F00450040DF3CF01F0030E84
:101E7800012601018E0E0124D96EDA6A010EDA22DA
:101E8800DF50026E02B41200045040D8DECF01F0D9
:101E9800DECF02F0DECF03F00350800A800F05E1A9
:101EA800000E025C02E1010E015CD8A01200045091
:101EB8002DD8FF0EDE06DE22DD22045027D8DE50A4
:101EC800DE10DD10D8A41200045028D8020EDF124C
:101ED800045024D8DF50026E02A012000450030DF3
:101EE800000EF324D96EDA6A010EDA220450040DCA
:101EF8008E0EF324E16EE26A010EE222DECFE6FFE7
:101F0800DECFE6FFDECFE5FFE5521200040D8E0EB0
:101F1800F324D96EDA6A010EDA221200040DF3CF27
:101F280001F0030E01268E0E0124D96EDA6A010E25
:101F3800DA221200E8CF63F0000150D8DF50616F59
:101F480061B5120063518AEC0FF0DECF60F0DECF8E
:101F580061F0DECF62F06251800A800F05E1000E69
:101F6800615D02E1010E605DD8A0120063518AEC48
:101F78000FF0FF0EDE06DE22DD2200016351040DA4
:101F880001018E0EF324D96EDA6A010EDA22DE50D0
:101F9800DE10DD10D8A41200000120D8020EDF12D6
:101FA8001DD8DF50616F61A112006351030D000E4F
:101FB800F324D96EDA6A010EDA226351040D0101A5
:101FC8008E0EF324E16EE26A010EE222DECFE6FF16
:101FD800DECFE6FFDECFE5FFE55212006351040DC8
:101FE800F3CF60F0030E60278E0E6025D96EDA6A93
:101FF800010EDA2212000F0E44D8B96F0001B9673A
:1020080005D0AB6BAC6BAD6BAE6B1200170E39D84D
:10201800B46FAC8FAD6BAB51B56FAC51B66FAD5102
:10202800B76FB86B8E0EB95FB9AF0CD0B951800AD3
:102038008F0FE7E3D890B833B733B633B533B93F2A
:10204800F9D70CD0170EB96507D0DBD7D890B537BC
:10205800B637B737B837B907B967F8D7B45108E012
:10206800B81FB71FB61FB56D000EB623B723B82328
:10207800B5C0ABF0B6C0ACF0B7C0ADF0B8C0AEF00C
:102088001200AF6FABC0B0F0ACC0B1F0ADC0B2F0F1
:10209800AF29B36F04D0D890B233B133B033B32F74
:1020A800FAD7B051120033503AE031503D0FD96E93
:1020B800DA6ADF50D66ED76A336A030E0001C56547
:1020C8000FD00101010E166E490E156E186A176AB7
:1020D8001A6A020E196E44EC0DF00001C56B01D0AE
:1020E800C52B81960101010E166E490E156EC0ECC6
:1020F80012F0BDEC0AF009D0808A20D08186808257
:102108001DD080801BD0808819D00001C551F4E013
:10211800010AF4E0030AF5E0010AF5E00FD03150B6
:102128000001C90FD96EDA6ADF50D66ED76A010E80
:10213800336E80908092809A80988196F2941200F3
:102148000001BF51BE11D8A4BCB31200C0C068F0D2
:102158000D0EC06102D0C02B01D0C06B010E606FA4
:10216800616B626B636B6851E82A05D0D890603761
:10217800613762376337E82EF9D7BE516015646F4F
:10218800BF516115656F666B676B675164116511A7
:102198006611DCE068C060F060476047C2506019B3
:1021A800C30B6019C26E68C060F0010E616F626B8C
:1021B800602B03D0D89061376237602FFBD7611D41
:1021C800636F621D646F6351BE176451BF17BC8390
:1021D800BC91C2821200635104E060516111621126
:1021E80006E1606B616B626B1200632B38D8656B1C
:1021F800666BFE0E6215676F65516611671107E021
:10220800F4D7632B602B000E6123622328D8656BFB
:10221800666B6251676F65516611671106E0F1D709
:102228006307D89060376137623761AFF9D763A128
:10223800619FD89063336351676F666B656B6551B7
:10224800601366516113675162136451D8A4628F99
:1022580060C060F061C061F062C062F01200D890A6
:102268006233613360331200A5B303D00001606BA1
:102278000BD0A551FD0BA56F0101A531010B000E77
:10228800D8B4010E0001606F616B61516011D8B460
:1022980012000ED0322A0101A5930FC1A2F110C17C
:1022A800A3F111C1A4F1A5951200010E326E010C23
:1022B8003250090AEFE0030AEDE0010AEBE0070AF1
:1022C800F4E0020AE7E0010AE5E01F0AE3E0010A98
:1022D800E1E0030ADFE0010ADDE0070ADBE0010ACA
:1022E800D9E0030AD7E0000AD5E0010AD3E00F0AD3
:1022F800D1E0010ADAD701EE8EF03D0EEE6AE8066B
:10230800FDE100EEBCF00D0EEE6AE806FDE100EE20
:1023180020F01D0EEE6AE806FDE1500EF66E240E62
:10232800F76E000EF86E01EE00F010EE50F00900A6
:10233800F5CFEEFFE550E150FAE1AC0EF66E270E50
:10234800F76E000EF86E00EEC9F010EE0AF0090004
:10235800F5CFEEFFE550E150FAE1B60EF66E270E26
:10236800F76E000EF86E00EE3DF010EE06F0090074
:10237800F5CFEEFFE550E150FAE1000148EF00F03B
:10238800FC0ED3166F86D08EF19EA2929F9CB1EC64
:1023980013F0D58CD59AD596070ED512D76AF10EBB
:1023A800D66ED58EB192300EB112B184FA0EB36EDC
:1023B800240EB26EB180B18E92909292929A9296B9
:1023C80092989294939E939293949398939C939AB1
:1023D8009396949C80908092809A8096809892ECB4
:1023E8000BF0819A8196829CF28AA082F28CF28EFE
:1023F800F28EF28C240C3250020A03E1080E326E7F
:10240800080C3250030A03E10D0E326E0D0C3250E7
:10241800040A05E1010E426E0E0E326E0E0C3250A9
:10242800050A05E1010E426E090E326E090C3250A2
:10243800060A03E11A0E326E1A0C3250070AD8A4A3
:102448001200220E326E220C0C00000C00009600C6
:1024580000120000FA000012000002000001000053
:102468000600000200000C00000800000A0000DA64
:10247800773ADAF73ADA773A00803FA2F4BF3C6A53
:102488003F820FD800820FD900820FB800820FB99F
:102498000003CECECE0505056A0569276B6B1ED0F5
:1024A8006951D96EDA6A67C060F068C061F0636B21
:1024B8000A0E626FE2EC12F06051300FDF6E6907AE
:1024C80067C060F068C061F0636B0A0E626F77ECFA
:1024D80012F060C067F061C068F06B2B6A516B5DE9
:1024E800D8B01200DDD7656B666B635162111BE0D3
:1024F800010E646F04D0D89062376337642B63AFE2
:10250800FAD7D890653766376251605D6351615973
:1025180005E36251605F6351615B6581D890633305
:102528006233642FEED765C060F066C061F01200B8
:10253800FA0EB36E240EB26E0C0E35EC0FF0040ECC
:1025480035EC0FF0020E35EC0FF099B302D00A6AA1
:102558000AD09951FD0B996F01019931010B000EB9
:10256800D8B4010E0A6E0B6A0B500A10D8A4829CCC
:1025780092EC09F0A192120020EE04F01550D92631
:102588001650DA22DF5007E115C0D9FF16C0DAFF6E
:10259800000EDB86FF0C20EE04F01550D9261650ED
:1025A800DA22DF0620EE01F01550D9261650DA227D
:1025B800DF50DF2AD96EDA6ADF50120063516211E8
:1025C80017E0010E646F04D0D89062376337642B2C
:1025D80063AFFAD76251605D6351615904E3625198
:1025E800605F6351615BD89063336233642FF2D7C5
:1025F80060C060F061C061F01200E8CF80F08051E7
:10260800D96EDA6ADECF6CF0DECF6DF0DDCF6EF01A
:102618007DC06FF07EC070F07FC071F053EC0EF09B
:102628008051D96EDA6A6CC0DEFF6DC0DEFF6EC005
:10263800DDFFDD521200E8CF94F09451D96EDA6ACA
:10264800DECF7DF0DECF7EF0DDCF7FF091C080F071
:1026580092C081F093C082F0D1EC0BF09451D96E06
:10266800DA6A7DC0DEFF7EC0DEFF7FC0DDFFDD529F
:10267800120000016B6B69AF06D0686D691FD8B096
:10268800692B010E6B6F68C060F069C061F0626B06
:102698008E0E636F6BC064F0EFEC10F060C068F0F2
:1026A80061C069F062C06AF01200800E901B8BC096
:1026B8007DF08CC07EF08DC07FF08EC080F08FC022
:1026C80081F090C082F0D1EC0BF07DC08BF07EC021
:1026D8008CF07FC08DF01200E8CF61F060C0A8FFD9
:1026E80061C0A9FFA69EA69CA684F29E550EA76E61
:1026F800AA0EA76EA68201D000F0A6B2FDD7A694B6
:10270800F28E12000600DACF1FF0F2AA01D001D033
:1027180006D0F2A401D001D002D057EC10F01FC0AF
:10272800DAFF1EC0D9FF1DC0E2FF1CC0E1FF110087
:10273800010E326E829C300E0001CE6FCF6FD06FCB
:10274800200ED16F0101C19324C1BEF125C1BFF193
:1027580026C1C0F1C195C181200C0F0EC112C05015
:10276800F80B0609C06EC70EC016C08EC2809E9CAC
:102778009D8CC70CE8CF60F060C0A9FFA69CA69E00
:10278800A680A8501200C230E8320F0B0001BD6FBE
:10279800BC819E9C1200BC93BC91C3CF60F0C4CF97
:1027A80061F01200E7ECF1F6FB2020202000FBF698
:0427B800F1ECE70158
:020000040020DA
:080000000000000000000000F8
:020000040030CA
:04000000040E0E1EBE
:02000500018078
:06000800000000800F4023
:0200000400F00A
:1000000000000000000000000000000000000001EF
:080010000000000000000000E8
:00000001FF
