:0400000046EF00F0D7
:10000800FACF16F0FBCF17F0E9CF18F09DED10F0FE
:10001800D8CF06F0E8CF07F0E0CF08F0E1CF09F03D
:10002800E2CF0AF0D9CF0BF0DACF0CF0F3CF0DF016
:10003800F4CF0EF0A0A201D001D007D0A1A201D028
:1000480001D003D05FEC10F00AD09DAC01D001D0F4
:1000580006D09EAC01D001D002D0B9EC12F00EC08F
:10006800F4FF0DC0F3FF0CC0DAFF0BC0D9FF0AC0C4
:10007800E2FF09C0E1FF08C0E0FF07C0E8FF06C0D3
:10008800D8FF10001AEF10F0DBEC10F0010E0001A1
:10009800D26F000EB0EC12F0456E010EB0EC12F00B
:1000A800446E2F6A306A0E0EB0EC12F0AD6FAC6B76
:1000B800AC512F12AD5130120F0EB0EC12F02F12BE
:1000C8002D6A2E6A100EB0EC12F0AD6FAC6BAC510D
:1000D8002D12AD512E12110EB0EC12F02D122FC0B0
:1000E80068F030C069F026EC12F07EEC09F026ECDE
:1000F80012F068C06CF069C06DF06AC06EF033EC45
:100108000DF06CC080F06DC081F06EC082F06AECBA
:100118000BF07DC0D8F07EC0D9F07FC0DAF0356A28
:10012800366A020EB0EC12F0AD6FAC6BAC51351202
:10013800AD513612030EB0EC12F03512376A386A38
:10014800040EB0EC12F0AD6FAC6BAC513712AD5180
:100158003812050EB0EC12F03712296A2A6A060E18
:10016800B0EC12F0AD6FAC6BAC512912AD512A1244
:10017800070EB0EC12F029122B6A2C6A080EB0ECAC
:1001880012F0AD6FAC6BAC512B12AD512C12090EA5
:10019800B0EC12F02B12316A326A0A0EB0EC12F08F
:1001A800AD6FAC6BAC513112AD5132120B0EB0ECDD
:1001B80012F03112336A346A0C0EB0EC12F0AD6FE3
:1001C800AC6BAC513312AD5134120D0EB0EC12F0D1
:1001D8003312828C380EC86FC96FCA6F780ECB6F16
:1001E80001014F93B6C04DF1B7C04EF14F954F8105
:1001F8005B93BEC059F1BFC05AF15B955E93C0C016
:100208005CF1C1C05DF15E954FB302D0036B0AD0BB
:100218004F51FD0B4F6F01014F31010B000ED8B448
:10022800010E036F046B045103111EE0000EF5EC80
:100238000EF0010EF5EC0EF0080EF5EC0EF0090EBE
:10024800F5EC0EF0030EF5EC0EF0050EF5EC0EF0E5
:10025800070EF5EC0EF0060EF5EC0EF00A0EF5ECB6
:100268000EF00B0EF5EC0EF001014CB302D0056B4D
:100278000AD04C51FD0B4C6F01014C31010B000EA3
:10028800D8B4010E056F066B0651051102E0010E88
:10029800396ED5EC0FF0010143B302D0076B0AD0D9
:1002A8004351FD0B436F01014331010B000ED8B4DC
:1002B800010E076F086B0851071130E0E4EC06F0F7
:1002C800BCEC06F016EC11F0010E0001D36F3950AA
:1002D8000F0A1DE03950110A1AE03950130A17E0C5
:1002E8003950150A14E03950170A11E03950190A23
:1002F8000EE039500A0A0BE039500C0A08E00ED01B
:100308000A0E03D0640E01D0010E436E07D043508D
:10031800010AF6E00B0AF6E06E0AF6E0010146B3C0
:1003280002D0096B0AD04651FD0B466F01014631D8
:10033800010B000ED8B4010E096F0A6B0A5109119E
:1003480030E0E4EC06F0BCEC06F016EC11F0010E1F
:100358000001D36F39500F0A1DE03950110A1AE015
:100368003950130A17E03950150A14E03950170AA2
:1003780011E03950190A0EE039500A0A0BE03950D9
:100388000C0A08E00ED0640E03D0010E01D00A0E4C
:10039800436E07D04350010AF6E00B0AF6E06E0AF6
:1003A800F6E039663BD001015EB302D00B6B0AD090
:1003B8005E51FD0B5E6F01015E31010B000ED8B47A
:1003C800010E0B6F0C6B0C510B1111E05E93C0C04A
:1003D8005CF1C1C05DF15E950001CB51780A02E184
:1003E800210E04D0CB51210A02E1760ECB6F010118
:1003F8005BB302D00D6B0AD05B51FD0B5B6F010143
:100408005B31010B000ED8B4010E0D6F0E6B0E514F
:100418000D1101E1D3D36FEC12F0D0D3390401E010
:10042800A9D141EC0FF0010167B302D00F6B0AD0DC
:100438006751FD0B676F01016731010B000ED8B4DE
:10044800010E0F6F106B10510F11D8A4278824A02C
:10045800B5D325500C0A01E0B1D3660E0001806FB8
:10046800AE0E816FC10E826FC0EC12F060C068F0F2
:1004780061C069F026EC12F068C07DF069C07EF0BA
:100488006AC07FF06AEC0BF07DC06CF07EC06DF046
:100498007FC06EF0EE0E6F6F140E706F400E716FAE
:1004A80033EC0DF06CC000F16DC001F16EC002F1CB
:1004B80000C196F001C197F002C198F0A3EC0AF0D0
:1004C80096C0D5F097C0D6F098C0D7F0D8C079F0CC
:1004D800D9C07AF0DAC07BF0D50EEAEC11F0D5C0BD
:1004E80060F0D6C061F0D7C062F0A4EC0DF060C037
:1004F800CFF061C0D0F0E80ECF5D030ED05904E311
:10050800030ED06FE70ECF6FCFC067F0D0C068F092
:10051800C80E696F030E6A6F3FEC11F015D1200EFB
:1005280033D1CF51355CD051365805E23750CF5DC5
:100538003850D05902E32D0E27D1CF51355CD05118
:10054800365805E22950CF5D2A50D05908E30EEC01
:1005580007F007E23750CF5D3850D05902E2780EE5
:1005680013D1CF51295CD0512A5805E23150CF5DC3
:100578003250D0590AE3CF51335CD051345807E296
:100588002B50CF5D2C50D05902E2210EFDD03150B6
:10059800CF5D3250D05901E211D3CF51335CD051E5
:1005A800345801E20BD30CD2CF51355CD0513658B8
:1005B800D6E23750CF5D3850D059D1E2CF51355CB3
:1005C800D051365805E23150CF5D3250D059DDE375
:1005D800CF51335CD051345805E23750CF5D385095
:1005E800D059D3E33150CF5D3250D05901E2E6D231
:1005F800CF51335CD051345801E3E2D1DFD2CF512F
:10060800355CD051365801E3DBD13750CF5D3850D7
:10061800D05901E3D5D1CF51355CD051365805E2D8
:100628003150CF5D3250D059B0E3CF51335CD05107
:10063800345805E23750CF5D3850D059A6E33150D1
:10064800CF5D3250D05901E2B9D2CF51335CD0518D
:10065800345885E2B3D2CF51375CD051385801E3D2
:100668007ED7CF51375CD051385805E23150CF5D35
:100678003250D0598AE33150CF5D3250D059BCD76F
:10068800CF51335CD051345801E39AD1CF51335C08
:10069800D051345806E23150CF5D3250D05901E282
:1006A80074D73150CF5D3250D059D3D7CF51375C42
:1006B800D051385806E32950CF5D2A50D05901E36C
:1006C8004ED7CF51375CD051385806E23150CF5D04
:1006D8003250D05901E259D72950CF5D2A50D0590C
:1006E80001E253D797DB01E250D73150CF5D32504A
:1006F800D05901E263D28EDB7FD7CF51335CD05122
:10070800345806E32950CF5D2A50D05901E358D117
:10071800CF51335CD051345806E23550CF5D365056
:10072800D05901E232D72950CF5D2A50D05901E281
:100738002CD770DB01E229D73550CF5D3650D05920
:1007480001E23CD267DB85D7445001E1E8D6010AD3
:1007580001E1E7D6030A01E127D7010A01E14FD7F2
:10076800070A01E178D7010A8BE0030A9FE0010A32
:10077800C4E024D23950020A09E1620E0001C86FB0
:10078800720EC96F690E23D0CB6F18D23950030A85
:1007980007E16E0E0001C86F6F0EC96F640E17D0A7
:1007A8003950040A07E14C0E0001C86F690EC96F81
:1007B8006E0E0DD03950050A05E1450E0001C86FCF
:1007C800530EB7D03950060A04E1750E06D0CA6F29
:1007D800A6D63950070A07E1460E0001C86F430E36
:1007E800C96F410EF4D73950080A36E1010158B3F0
:1007F80002D0116B04D0CADAD8B4010E116F126B93
:100808001251111101E0B4DA55B302D0136B04D0C0
:10081800B6DAD8B4010E136F146B1451131101E03A
:10082800BCDA55B514D05451531111E0200E000113
:10083800CB6F45C0CDF0CE6BCDC067F0CEC068F0B1
:10084800CA0E696F010E6A6F3FEC11F0B7D1200E26
:100858000001C86FC96FBBD739500D0A26E10101E5
:1008680058B302D0156B04D091DAD8B4010E156FC5
:10087800166B1651151101E07BDA55B302D0176BD0
:1008880004D07DDAD8B4010E176F186B1851171100
:1008980001E083DA55B5DBD754515311D8E0200E67
:1008A8000001CB6F44C0CDF0C6D73950090A07E123
:1008B800450E0001C86F6E0EC96F740E88D7395087
:1008C8000A0A30E1010158B302D0196B04D05EDA8C
:1008D800D8B4010E196F1A6B1A51191101E048DAD0
:1008E80055B302D01B6B04D04ADAD8B4010E1B6F83
:1008F8001C6B1C511B1101E050DA55B5A8D7545197
:100908005311A5E02FC0CDF030C0CEF0CDC067F0B8
:10091800CEC068F00001C80E696F030E6A6F3FEC25
:1009280011F04CD139500B0A07E1640E0001C86F71
:10093800450EC96F630E4BD739500C0A26E10101E9
:1009480058B302D01D6B04D021DAD8B4010E1D6F44
:100958001E6B1E511D1101E00BDA55B302D01F6B3F
:1009680004D00DDAD8B4010E1F6F206B20511F116F
:1009780001E013DA55B56BD75451531101E167D72C
:100988002DC0CDF02EC0CEF0C1D739500E0A02E1ED
:1009980035DA04D03950100A03E136DACA6FDFD5E8
:1009A8003950120A02E12ADA04D03950140A03E154
:1009B8002BDACA6FEAD53950160A04E11FDA06D0D5
:1009C800760EE2D63950180A03E11EDACA6FF8D754
:1009D80039500F0A26E1010158B302D0216B04D027
:1009E800D5D9D8B4010E216F226B2251211101E013
:1009F800BFD955B302D0236B04D0C1D9D8B4010EE6
:100A0800236F246B2451231101E0C7D955B51FD793
:100A18005451531101E11BD735C0CDF036C0CEF08B
:100A280075D73950110A26E1010158B302D0256B58
:100A380004D0ACD9D8B4010E256F266B26512511E8
:100A480001E096D955B302D0276B04D098D9D8B411
:100A5800010E276F286B2851271101E09ED955B543
:100A6800F6D65451531101E1F2D637C0CDF038C053
:100A7800CEF04CD73950130A26E1010158B302D001
:100A8800296B04D083D9D8B4010E296F2A6B2A5157
:100A9800291101E06DD955B302D02B6B04D06FD961
:100AA800D8B4010E2B6F2C6B2C512B1101E075D98A
:100AB80055B5CDD65451531101E1C9D629C0CDF051
:100AC8002AC0CEF023D73950150A26E1010158B3C0
:100AD80002D02D6B04D05AD9D8B4010E2D6F2E6BCD
:100AE8002E512D1101E044D955B302D02F6B04D0FB
:100AF80046D9D8B4010E2F6F306B30512F1101E059
:100B08004CD955B5A4D65451531101E1A0D62BC0E8
:100B1800CDF02CC0CEF0FAD63950170A26E10101E3
:100B280058B302D0316B04D031D9D8B4010E316F2B
:100B3800326B3251311101E01BD955B302D0336BFE
:100B480004D01DD9D8B4010E336F346B345133112E
:100B580001E023D955B57BD65451531101E177D61D
:100B680031C0CDF032C0CEF0D1D63950190A26E1C5
:100B7800010158B302D0356B04D008D9D8B4010E9E
:100B8800356F366B3651351101E0F2D855B302D0C6
:100B9800376B04D0F4D8D8B4010E376F386B38519E
:100BA800371101E0FAD855B552D65451531101E125
:100BB8004ED633C0CDF034C0CEF0A8D60001D4BB99
:100BC800D4AD04D0D4511F0B020A03E00101396BE4
:100BD80002D0EAD8396F3A6B3A51391118E000015E
:100BE800D35102E0D36B13D00101416B426B3950F2
:100BF80006E0070E396003D0392AF2D808D03950F8
:100C0800070A03E1020E396EF8D713EC07F000016A
:100C1800D4BBD4AD04D0D4511F0B030A03E00101A7
:100C28003B6B02D0C1D83B6F3C6B3C513B1118E089
:100C38000001D35102E0D36B13D00101446B456B23
:100C4800395006E0070E396003D0392AC9D808D0D0
:100C58003950070A03E1020E396EF8D751EC08F053
:100C68000001D4BBD4BD03D0D4511F0B03E0010154
:100C78003D6B02D099D83D6F3E6B3E513D1130E03F
:100C88003950020A27E03950030A24E03950040A8F
:100C980021E03950050A1EE039500A0A1BE0395094
:100CA8000C0A18E03950060A15E03950070A12E014
:100CB80039500F0A0FE03950110A0CE03950130A65
:100CC80009E03950150A06E03950170A03E039508F
:100CD800190A06E14393AEC041F1AFC042F1439512
:100CE8000001D4BBD4BD05D0D4511F0BAC6FAC05EB
:100CF80003E001013F6B02D057D83F6F406B405172
:100D08003F1102E108EF01F03950020A29E0395099
:100D1800030A26E03950040A23E03950050A20E086
:100D280039500A0A1DE039500C0A1AE03950060AEF
:100D380017E03950070A14E039500F0A11E039500A
:100D4800110A0EE03950130A0BE03950150A08E071
:100D58003950170A05E03950190A02E008EF01F086
:100D68004693B0C044F1B1C045F1469508EF01F093
:100D78005593BAC053F1BBC054F155951200555163
:100D8800FD0B556F01015531010B000C5851FD0B3E
:100D9800586F01015831010B000C5893BCC056F133
:100DA800BDC057F158951200D451DF0BD46F000124
:100DB800D439E832010B000ED8B4010E010112003B
:100DC8004A6B4B6B828C4993B2C047F1B3C048F170
:100DD80049955293B8C050F1B9C051F152951200DB
:100DE800828C4C93B4C04AF1B5C04BF14C954993F1
:100DF800B2C047F1B3C048F149951200200E000176
:100E0800C86F4C0EC96F6F0C200E0001C86F480EDA
:100E1800C96F690CCF512B5CD0512C581200395036
:100E2800080A09E1040E456006D0452A45C060F06D
:100E3800000E59EC12F039500A0A38E143502F24B9
:100E480000018B6F000E302023D9D8B48B5D2EE2C1
:100E580043502F26000E30223050606F0E0E59EC92
:100E680012F02FC060F00F0E59EC12F02FC068F08E
:100E780030C069F026EC12F07EEC09F026EC12F096
:100E880068C06CF069C06DF06AC06EF033EC0DF0AC
:100E98006CC080F06DC081F06EC082F06AEC0BF01F
:100EA8007DC0D8F07EC0D9F07FC0DAF039500C0A86
:100EB80038E143502D2400018B6F000E2E20E8D816
:100EC800D8B48B5D2EE243502D26000E2E222E50D4
:100ED800606F100E59EC12F02DC060F0110E59EC35
:100EE80012F02FC068F030C069F026EC12F07EECEA
:100EF80009F026EC12F068C06CF069C06DF06AC0A9
:100F08006EF033EC0DF06CC080F06DC081F06EC0F7
:100F180082F06AEC0BF07DC0D8F07EC0D9F07FC0BB
:100F2800DAF039500D0A09E1070E446006D0442A68
:100F380044C060F0010E59EC12F039500F0A18E164
:100F48004350352400018B6F000E3620A1D8D8B449
:100F58008B5D0EE243503526000E36223650606F08
:100F6800020E59EC12F035C060F0030E59EC12F085
:100F78003950110A18E14350372400018B6F000ED5
:100F8800382086D8D8B48B5D0EE243503726000E41
:100F980038223850606F040E59EC12F037C060F0F8
:100FA800050E59EC12F03950130A18E14350292460
:100FB80000018B6F000E2A206BD8D8B48B5D0EE22F
:100FC80043502926000E2A222A50606F060E59EC3B
:100FD80012F029C060F0070E59EC12F03950150ACA
:100FE80018E143502B2400018B6F000E2C2050D8A1
:100FF800D8B48B5D0EE243502B26000E2C222C50C9
:10100800606F080E59EC12F02BC060F0090E59EC15
:1010180012F03950170A18E14350312400018B6F40
:10102800000E322035D8D8B48B5D0EE243503126FD
:10103800000E32223250606F0A0E59EC12F031C0A5
:1010480060F00B0E59EC12F03950190A18E14350B0
:10105800332400018B6F000E34201AD8D8B48B5D6E
:101068000EE243503326000E34223450606F0C0ECB
:1010780059EC12F033C060F00D0E59EC12F001017A
:101088005293B8C050F1B9C051F15295BCEF06F077
:101098008C6F8C51800A7D0FE80C3950080A08E1E2
:1010A800455006E0450645C060F0000E59EC12F0C8
:1010B80039500A0A36E143502F5C00018B6F000E4D
:1010C80030588C6F8CBF2DD043502F5E000E305A95
:1010D8003050606F0E0E59EC12F02FC060F00F0EFA
:1010E80059EC12F02FC068F030C069F026EC12F00D
:1010F80001D926EC12F068C06CF069C06DF06AC0C6
:101108006EF033EC0DF06CC080F06DC081F06EC0F5
:1011180082F06AEC0BF07DC0D8F07EC0D9F07FC0B9
:10112800DAF039500C0A36E143502D5C00018B6F20
:10113800000E2E588C6F8CBF2DD043502D5E000EA4
:101148002E5A2E50606F100E59EC12F02DC060F020
:10115800110E59EC12F02FC068F030C069F026EC7F
:1011680012F0C8D826EC12F068C06CF069C06DF0B7
:101178006AC06EF033EC0DF06CC080F06DC081F089
:101188006EC082F06AEC0BF07DC0D8F07EC0D9F05A
:101198007FC0DAF039500D0A08E1445006E04406F1
:1011A80044C060F0010E59EC12F039500F0A17E1F3
:1011B8004350355C00018B6F000E36588C6F8CBF26
:1011C8000ED04350355E000E365A3650606F020E10
:1011D80059EC12F035C060F0030E59EC12F039509A
:1011E800110A17E14350375C00018B6F000E385825
:1011F8008C6F8CBF0ED04350375E000E385A385073
:10120800606F040E59EC12F037C060F0050E59EC0F
:1012180012F03950130A17E14350295C00018B6F13
:10122800000E2A588C6F8CBF0ED04350295E000EDA
:101238002A5A2A50606F060E59EC12F029C060F045
:10124800070E59EC12F03950150A17E143502B5C80
:1012580000018B6F000E2C588C6F8CBF0ED0435042
:101268002B5E000E2C5A2C50606F080E59EC12F0B1
:101278002BC060F0090E59EC12F03950170A17E12B
:101288004350315C00018B6F000E32588C6F8CBF5D
:101298000ED04350315E000E325A3250606F0A0E43
:1012A80059EC12F031C060F00B0E59EC12F03950C5
:1012B800190A17E14350335C00018B6F000E345854
:1012C8008C6F8CBF0ED04350335E000E345A3450AE
:1012D800606F0C0E59EC12F033C060F00D0E59EC33
:1012E80012F001015293B8C050F1B9C051F15295B2
:1012F800BCEF06F068C07DF069C07EF06AC07FF080
:101308006F6B7A0E706F440E716F2DC068F02EC02F
:1013180069F0440CE8CF0FF083D08084818E8182FD
:1013280081848188818C819A12008094818E01D178
:101338008084818EF2D08084818E8182818481989C
:10134800819C818A12008094818E81828194819807
:10135800818C818A12008084819EB8D080841FD0BD
:101368008084818E818281948198818C819A1200F7
:101378008084818EB1D080844AD08094819E81926D
:1013880081848198819C819A120099D8819A81865A
:1013980012008094819ECDD08084A4D08094819EB8
:1013A8009BD08084A6D08094819EB7D08094818E73
:1013B800818281848188819C818A1200808421D0E5
:1013C8008084818EA4D08084819EADD080948AD080
:1013D80080948FD08094819E818281948188819C21
:1013E800818A12008DD8818A12008084818E9BD0D8
:1013F8008094819E819281948188819C818A120047
:101408008094819E84D07CD8819A12008094818EA9
:101418005DD055D8818A120052D8819A81961200DF
:101428000F50200AF9E0010AB4E00C0AF2E01D0AA4
:1014380001E173D7010A01E178D7030A01E178D7FE
:10144800010A01E178D7070A01E17DD7010A83E0A3
:10145800030A84E0010A84E00F0A8AE0010A8BE0AB
:10146800780A9AE0020A9DE0060AA8E0030AABE0BF
:101478000E0AACE0040AACE01C0AB7E0030A01E17A
:101488006AD7310A8BE0010A8EE0070A8FE0010A69
:1014980097E00C0A01E17DD7070A9CE0010AA2E067
:1014A8001D0AA6E0060AACE0010AADE0030A01E164
:1014B8006CD70E0A01E161D7010AA8E0ADD7809484
:1014C800819E819281948198819C1200818281847D
:1014D8008198818C818A1200818281848188818CA3
:1014E800818A1200818E818281948188818C818A8F
:1014F8001200819E819281848188818C819A120058
:101508008094819E818281848188819C120081924D
:1015180081848188818C818A12008192818481886A
:10152800819C818A1200819281948188818C818A30
:101538001200818281948198819C819A120021EE07
:101548007AF010EE99F0090EDECFE6FFE82EFCD710
:1015580021EE83F010EEA2F0090EDECFE6FFE82EB2
:10156800FCD7020EAB6FAB51030D650EF324D96E99
:10157800DA6A010EDA220001AB51030D680EF3247A
:10158800E16EE26A010EE222DECFE6FFDECFE6FF81
:10159800DECFE5FFAB51030D6E0EF324D96EDA6A88
:1015A800010EDA22AB51030D710EF324E16EE26AEB
:1015B800010EE222DECFE6FFDECFE6FFDECFE5FF5B
:1015C800E552AB07AB67CFD796C068F197C069F112
:1015D80098C06AF199C068F09AC069F09BC06AF037
:1015E80068C16BF069C16CF06AC16DF0B6EC0CF0C3
:1015F80068C071F169C072F16AC073F1010EAB6F16
:10160800010E0001926F710E916FAB51030D710EB7
:10161800F324D96EDA6A010EDA224ED8A20FD96EF7
:10162800DA6ADECF68F0DECF69F0DDCF6AF0B6ECBB
:101638000CF068C08EF069C08FF06AC090F0AB51B2
:10164800030D680EF324D96EDA6A010EDA2200015E
:1016580033D8990FD96EDA6ADECF68F0DECF69F039
:10166800DDCF6AF0B6EC0CF068C08BF069C08CF086
:101678006AC08DF042EC12F08BC093F08CC094F0ED
:101688008DC095F0CCEC11F0AB2B020EAB65B8D742
:10169800010E00017E6F710E7D6FA2C07FF0A3C0A6
:1016A80080F0A4C081F008EC12F071C196F072C10C
:1016B80097F073C198F01200DECF6BF0DECF6CF0BC
:1016C800DDCF6DF0AB51030DF35012000F0E836F99
:1016D8007DC084F07EC085F07FC086F08329876F47
:1016E80001D0A9D8872FFDD784518A6F0F0E836F39
:1016F80080C084F081C085F082C086F08329876F1E
:1017080001D099D8872FFDD78451896F8A5109E074
:1017180089518A610DD08A51895D836F190E835D65
:1017280007E380C07DF081C07EF082C07FF01200A8
:10173800895109E08A5189610DD089518A5D836F89
:10174800190E835D07E37DC07DF07EC07EF07FC00B
:101758007FF01200060E886F7FBF888F82BF888D4A
:101768007E8F7F6B818F826B89518A6117D0D89069
:10177800803781378237890789518A190BE08807B2
:1017880000018851070B06E0F2D7D8907F337E33EB
:101798007D338A2B89518A63F8D719D08A51896198
:1017A80016D0D8907D377E377F378A0789518A19B6
:1017B8000BE0880700018851070B06E0F2D7D890A4
:1017C800823381338033892B89518A63F8D788AF74
:1017D80007D07D1F7E1F7F1F7D2B000E7E237F235A
:1017E80088AD02D0801F20D8886B7D5180277E511C
:1017F80081237F51822382AF04D0801F15D8010E28
:10180800886F80C060F081C061F082C062F08AC0D9
:1018180063F088C064F08CEC0FF060C07DF061C0AC
:101828007EF062C07FF01200811F821F802B000EA5
:1018380081238223000CD8908633853384331200A9
:101848000FC0D9FF10C0DAFFF70EDF161350020AD7
:10185800141029E165D815A011D020EE03F00F501F
:10186800D9261050DA2210EE01F061D810EE04F0FB
:101878000F50E1261050E222DFCFE7FF51D815A222
:10188800120020EE03F00F50D9261050DA2210EE85
:1018980002F04DD810EE05F00F50E1261050E2226C
:1018A800DFCFE7FF1200145013100FE139D815A04D
:1018B80004D020EE01F00F5016D832D815A212002D
:1018C80020EE02F00F500FD8000C2AD815A004D033
:1018D80020EE01F00F5038D823D815A2120020EEC0
:1018E80002F00F5031D0D9261050DA2210EE06F04F
:1018F8000F50E1261050E222E750156E10EE03F06B
:101908000F50E1261050E222E7501524DF6E20EE3A
:1019180005F00F50D9261050DA22000EDF6E000CA9
:101928000FC0D9FF10C0DAFFDF50156E12000F503C
:10193800E1261050E222DFCFE7FF20EE06F00F503D
:10194800D9261050DA221200D9261050DA22115066
:10195800DF2620EE05F00F50D9261050DA2211505C
:10196800DF5E12000F0E6E6F68C06FF069C070F016
:101978006AC071F06E29726F01D06CD8722FFDD7D2
:101988006F51736F0001736704D0686B696B6A6B82
:1019980012000F0E6E6F6BC06FF06CC070F06DC0F0
:1019A80071F06E29726F01D055D8722FFDD76F5123
:1019B800786F0001786704D0686B696B6A6B1200F6
:1019C80078517B0F73276AC078F000016D51781B3E
:1019D800800E7817698F6C8F000E6D17746B756B9E
:1019E800766B070E776F68A102D06B512DD8D8900F
:1019F8006A3369336833D8906B376C376D37772F14
:101A0800F2D7090E776F68A102D06B511DD8D89014
:101A18006A3369336833D890763375337433772FE4
:101A2800F2D774C060F075C061F076C062F073C020
:101A380063F078C064F08CEC0FF060C068F061C0AF
:101A480069F062C06AF0120074276C5175236D51F9
:101A580076231200D890713370336F3312000F0E53
:101A6800726F6CC073F06DC074F06EC075F072293F
:101A7800766F01D060D8762FFDD773517B6F000148
:101A88007B6704D06C6B6D6B6E6B12000F0E726F00
:101A98006FC073F070C074F071C075F07229766F02
:101AA80001D049D8762FFDD773517C6F00017C6730
:101AB80004D06C6B6D6B6E6B1200786B796B7A6B04
:101AC8007C51890F7B5F6EC07CF0000171517C1BDB
:101AD800800E7C176D8F6E6B708F716B180E776F21
:101AE800D890783779377A376F516C5D70516D5966
:101AF80071516E5907E36F516C5F70516D5B715195
:101B08006E5B7881D8906C376D376E37772FE8D752
:101B180078C060F079C061F07AC062F07BC063F091
:101B28007CC064F08CEC0FF060C06CF061C06DF0AC
:101B380062C06EF01200D89075337433733312009C
:101B48000F0E44D86E6F00016E6705D0606B616B35
:101B5800626B636B1200170E39D8696F618F626B05
:101B680060516A6F61516B6F62516C6F6D6B8E0E55
:101B78006E5F6EAF0CD06E51800A8F0FE7E3D8907E
:101B88006D336C336B336A336E3FF9D70CD0170E55
:101B98006E6507D0DBD7D8906A376B376C376D37EF
:101BA8006E076E67F8D7695108E06D1F6C1F6B1FD1
:101BB8006A6D000E6B236C236D236AC060F06BC0E6
:101BC80061F06CC062F06DC063F01200646F60C0B9
:101BD80065F061C066F062C067F06429686F04D080
:101BE800D890673366336533682FFAD7655112008A
:101BF800E8CF03F00350030DF3CF01F0020E0126E6
:101C08000101410E0124D96EDA6A010EDA22DF5091
:101C1800026E02B412000350030D2ED8DE50DD1000
:101C2800D8B412000350030D27D8DE06000EDD5A83
:101C38000350030D21D8DE50DD10D8A41200035044
:101C480022D8020EDF1203501ED8DF50026E02A007
:101C580012000350020DF350AE0FD96EDA6A03502A
:101C6800030D410EF324E16EE26A010EE222DECF9B
:101C7800E6FFDDCFE5FF1200410EF324D96EDA6AE4
:101C8800010EDA221200030DF3CF01F0020E012635
:101C9800410E0124D96EDA6A010EDA221200E8CF69
:101CA80003F047D8DF5003E044D8DF0612000350A2
:101CB80039D80118FE0B0118DF6E035033D8026EB5
:101CC80002A011D003502ED8026E02B20CD000012F
:101CD800D48BD48D2ED80A0EDF6ED4510318E00BA6
:101CE8000318D46F0ED003501DD8026E02B009D06D
:101CF800035018D8026E02A204D00001D48BD49DE0
:101D0800E9D703500FD8010B026E0350020DF350B0
:101D18003B0FD96EDA6A0246DF500218FD0B021833
:101D2800DF6E1200020DF3503B0FD96EDA6ADF50F6
:101D380012000350020DF3503C0FD96EDA6A1200FC
:101D48003A503CE0910E4524D96EDA6A010EDA2247
:101D5800DF50D66ED76A3A6A030E0001D1650FD0FC
:101D68000101010E106E960E0F6E126A116A146A46
:101D7800020E136E24EC0CF00001D16B01D0D12BB4
:101D880081960101010E106E960E0F6E8BEC11F00C
:101D98008EEC09F009D0808A22D0818680821FD0FB
:101DA80080801DD080881BD00001D151F4E0010A49
:101DB800F4E0030AF5E0010AF5E011D001018C0E08
:101DC8004524D96EDA6A010EDA22DF50D66ED76A58
:101DD800010E3A6E80908092809A80988196F29453
:101DE8001200E8CF62F000013BD8DF50616F61B5A7
:101DF80012006251030D010140EC0EF0DE50DD10BF
:101E0800D8B4120000016251030D40EC0EF0DE065A
:101E1800000EDD5A6251030D010140EC0EF0DE5058
:101E2800DD10D8A4120000011BD8020EDF1218D84A
:101E3800DF50616F61A112006251020DF350AE0FC5
:101E4800D96EDA6A6251030D0101410EF324E16E85
:101E5800E26A010EE222DECFE6FFDDCFE5FF1200E7
:101E68006251030DF3CF60F0020E6027410E60252A
:101E7800D96EDA6A010EDA22120027502610D8A489
:101E880024B2120028C068F00D0E286002D0282A5B
:101E980001D0286A010E0001606F616B626B636B91
:101EA8006851E82A05D0D8906037613762376337C0
:101EB800E82EF9D726506015646F27506115656FB5
:101EC800666B676B6751641165116611DBE068C06A
:101ED80060F060476047C2506019C30B6019C26E5A
:101EE80068C060F0010E616F626B602B03D0D89000
:101EF80061376237602FFBD7611D636F621D646FA6
:101F0800635126166451271624822490C282120037
:101F1800635104E060516111621106E1606B616B0D
:101F2800626B1200632B38D8656B666BFE0E621508
:101F3800676F65516611671107E0F4D7632B602B53
:101F4800000E6123622328D8656B666B6251676F48
:101F580065516611671106E0F1D76307D8906037BD
:101F68006137623761AFF9D763A1619FD890633356
:101F78006351676F666B656B6551601366516113DA
:101F8800675162136451D8A4628F60C060F061C069
:101F980061F062C062F01200D8906233613360333E
:101FA800120052B303D00001606B0BD05251FD0BED
:101FB800526F01015231010B000ED8B4010E00011D
:101FC800606F616B61516011D8B412000CD0392A6E
:101FD80001015293B8C050F1B9C051F152951200A5
:101FE800010E396E010C3950090AF1E0030AEFE0DD
:101FF800010AEDE0070AF4E0020AE9E0010AE7E075
:102008001F0AE5E0010AE3E0030AE1E0010ADFE074
:10201800070ADDE0010ADBE0030AD9E0000AD7E09D
:10202800010AD5E00F0AD3E0010ADAD701EE41F040
:10203800390EEE6AE806FDE100EECDF00B0EEE6A11
:10204800E806FDE100EE24F0170EEE6AE806FDE171
:10205800040EF66E250EF76E000EF86E01EE7AF09D
:1020680010EE23F00900F5CFEEFFE550E150FAE15C
:10207800270EF66E250EF76E000EF86E00EEAEF027
:1020880010EE1FF00900F5CFEEFFE550E150FAE140
:102098008E0EF66E250EF76E000EF86E00EE3BF013
:1020A80010EE09F00900F5CFEEFFE550E150FAE136
:1020B800000148EF00F0FA0EB36E240EB26E0C0E5B
:1020C800FCEC0DF0040EFCEC0DF0020EFCEC0DF037
:1020D80049B302D0046A0AD04951FD0B496F010186
:1020E8004931010B000ED8B4010E046E056A055083
:1020F8000410D8A4829C000E82B0010E016E000E5E
:1021080053EC0EF0000E82B0010E016E020E53EC7D
:102118000EF0000E82B2010E016E010E53EC0EF0AD
:10212800000E82B2010E016E030E53EC0EF0A19266
:1021380012000600EACF19F0E1CF1AF0E2CF1BF047
:10214800D9CF1CF0DACF1DF0F3CF1EF0F4CF1FF07B
:10215800F6CF20F0F7CF21F0F8CF22F0F5CF23F01B
:10216800F2AA01D001D006D0F2A401D001D002D049
:10217800A4EC0EF023C0F5FF22C0F8FF21C0F7FF42
:1021880020C0F6FF1FC0F4FF1EC0F3FF1DC0DAFF1A
:102198001CC0D9FF1BC0E2FF1AC0E1FF19C0EAFF4B
:1021A80018C0E9FF17C0FBFF16C0FAFF1100FC0EAC
:1021B800D3166F86D08EF19EA2929F9CA3EC12F04C
:1021C800D58CD59AD596070ED512D76AF10ED66E4C
:1021D800D58EB192300EB112B184FA0EB36E240EC0
:1021E800B26EB180B18E92909292929A9296929893
:1021F8009294939E939293949398939C939A939684
:10220800949C80908092809A8096809863EC0AF0E3
:10221800819A8196829CF28AA082F28CF28EF28E4A
:10222800F28C240C3950020A03E1080E396E080CAE
:102238003950030A03E10D0E396E0D0C3950040AAA
:1022480005E1010E436E0E0E396E0E0C3950050A6B
:1022580005E1010E436E090E396E090C3950060A64
:1022680003E11A0E396E1A0C3950070AD8A4120065
:10227800220E396E220C6A0569276B6B1ED06951D4
:10228800D96EDA6A67C060F068C061F0636B0A0EE5
:10229800626FADEC11F06051300FDF6E690767C0F7
:1022A80060F068C061F0636B0A0E626F66EC11F053
:1022B80060C067F061C068F06B2B6A516B5DD8B085
:1022C8001200DDD7656B666B635162111BE0010E6E
:1022D800646F04D0D89062376337642B63AFFAD742
:1022E800D890653766376251605D6351615905E37F
:1022F8006251605F6351615B6581D890633362337B
:10230800642FEED765C060F066C061F0120020EE61
:1023180004F00F50D9261050DA22DF5007E10FC021
:10232800D9FF10C0DAFF000EDB86FF0C20EE04F0A8
:102338000F50D9261050DA22DF0620EE01F00F5098
:10234800D9261050DA22DF50DF2AD96EDA6ADF5038
:1023580012006351621117E0010E646F04D0D89027
:1023680062376337642B63AFFAD76251605D63519C
:10237800615904E36251605F6351615BD8906333D4
:102388006233642FF2D760C060F061C061F0120060
:1023980091C0D9FF92C0DAFFDECF7DF0DECF7EF0AC
:1023A800DDCF7FF093C080F094C081F095C082F0BB
:1023B8006AEC0BF091C0D9FF92C0DAFF7DC0DEFF56
:1023C8007EC0DEFF7FC0DDFFDD521200E8CF7CF06B
:1023D8007C51D96EDA6ADECF68F0DECF69F0DDCFE6
:1023E8006AF079C06BF07AC06CF07BC06DF0B6EC27
:1023F8000CF07C51D96EDA6A68C0DEFF69C0DEFF76
:102408006AC0DDFFDD5212007DC0D9FF7EC0DAFF51
:10241800DECF6CF0DECF6DF0DDCF6EF07FC06FF0F9
:1024280080C070F081C071F033EC0DF07DC0D9FF31
:102438007EC0DAFF6CC0DEFF6DC0DEFF6EC0DDFF60
:10244800DD52120000016B6B69AF06D0686D691F21
:10245800D8B0692B010E6B6F68C060F069C061F07D
:10246800626B8E0E636F6BC064F08CEC0FF060C013
:1024780068F061C069F062C06AF01200800E901BBB
:102488008BC07DF08CC07EF08DC07FF08EC080F058
:102498008FC081F090C082F06AEC0BF07DC08BF0A9
:1024A8007EC08CF07FC08DF01200E8CF61F060C074
:1024B800A8FF61C0A9FFA69EA69CA684F29E550E01
:1024C800A76EAA0EA76EA68201D000F0A6B2FDD70D
:1024D800A694F28E1200010E396E829C300E000115
:1024E800C86FC96FCA6F200ECB6F01016793C6C052
:1024F80065F1C7C066F167956781200CDA773ADA2B
:10250800F73ADA773A00803FA2F4BF3C6A3FE7EC3B
:10251800F1F6FBFBF6F1ECE703C8C8C80505050CA6
:10252800000C0096001200FA0012000200010006DA
:102538000002000C0008000A0020202020000F0ED6
:10254800C112C050F80B0609C06EC70EC016C08E67
:10255800C2809E9C9D8CC70CE8CF60F060C0A9FF2C
:10256800A69CA69EA680A8501200C230E8320F0B87
:10257800256E24809E9C120024922490C3CF60F084
:10258800C4CF61F012000300030003000300010040
:020000040020DA
:080000000000000000000000F8
:020000040030CA
:04000000040E0E1EBE
:02000500018078
:06000800000000800F4023
:0200000400F00A
:1000000000000000000000000000000000000001EF
:1000100000000000000000000000000000000000E0
:1000200000000000000000010000000000000000CF
:00000001FF
